:101C000002C0302E3031112420E0A0E6B0E001C047
:101C10001D92A83CB207E1F75EC0382FFC018FEFA0
:101C20009FEF2E2F231B261708F00895219182275E
:101C300028E0AC014170552796958795452B21F0FA
:101C400041E0842740EA9427215099F7EACFCF93C7
:101C5000DF93FC0140E853E09F012F5F3F4F9081ED
:101C600046BD56BDC39AC19AB99AC19808B2E3E07D
:101C7000C0E2DC2FDA95F1F790FB01F8E695979535
:101C800008BAB9F746BD16BC962F921BF901980FFA
:101C900019F7DF91CF9108951F93CF93DF93EC0154
:101CA000162F6EEF610FB9DF9E01210F311DF90173
:101CB0003297808321503109F9019083612FCE0141
:101CC000DF91CF911F91C3CFFC0121812058218347
:101CD000628365E0E1CFF8940FB6F894A89581B5DA
:101CE000886181BD11BC0FBEC598BD98B59918C05B
:101CF000E0E0F0E0D591DF3F99F4D491DD3C81F450
:101D0000EF91E43551F4EF91EF3439F4EF91EF3482
:101D100021F4EF91E23409F403C0EFE0F0E009941C
:101D2000CFE5D2E0DEBFCDBF80E090E029D1F82E34
:101D3000BB9A87ECA82E80E0B82E90E8E92E23E02D
:101D4000922E88248A943DEC732E44E0642E54E055
:101D5000252E5CE1352E65E0462E6CE1562E78E1AD
:101D6000D72EE8E2CE2EE0EAF0E081818193AE1634
:101D7000BF06D9F7E6BC96BCC398C098B8982FE2C6
:101D800080E8B099FECF2150F1F721E2B099089494
:101D90008795C8F72A95F1F7E6BC16BC8093C70073
:101DA0009091A0009F117BC09091A100903109F00B
:101DB00076C09091A500903109F071C00091C600E5
:101DC000182F66E280EA90E028DF8017910709F07B
:101DD00066C08091A2009091A30098278927982738
:101DE000813E2BE1920708F094C09C012F713327AC
:101DF000232B09F08EC0009721F48092A6007092E8
:101E0000A70050E0BC01607CA0E6B0E030E020E03C
:101E1000FB01E20FF31FE491ED932F5F3F4F20345E
:101E20003105B1F7282F261B30E0E52FF0E0EA5509
:101E3000FF4F2034310550F44191D901A05ABF4FD2
:101E40004C935F5F2F5F3F4F503299F7E62FF72F8C
:101E5000C0E6D0E014D003E007BFE89540E40FD01F
:101E60000990199001E007BFE89532964250B9F702
:101E700006D0E62FF72F05E007BFE89506C01091C2
:101E8000370011701130D9F308951124850F911D79
:101E9000503208F4B7CF68E080EA90E0FDDE809130
:101EA000C0008F1160CFD091C100D33019F0D6306F
:101EB00009F059CF0091C6001091C70066E080EC90
:101EC00090E0ABDE8017910709F04DCF2091C20062
:101ED0003091C3003227232732278091C500D330A9
:101EE000E9F0D63009F03FCF232B09F03CCF909199
:101EF000C400892BC1F468E080EC90E0A8DE0FB646
:101F0000F894A895D1BC0FBEC1BCEFE0F0E00994F5
:101F10002ACF62E080EA90E0D7DEC1CF21153105FB
:101F200099F4813029F063E080EC90E0CDDE1BCFA6
:101F300092E09093C2001092C3008093C40067E0C7
:101F400080EC90E0A9DE0FCF2130310509F00BCFF6
:101F5000823049F76092C200E2E0FCE18491809314
:101F6000C300E3E0FCE184918093C400F10184911B
:101F70008093C500F20184918093C60069E0E0CFB0
:101F8000E199FECF9FBB8EBBE09A99278DB3089550
:0400000300001C00DD
:00000001FF
