:1000000010C02AC052C628C027C0D0C525C024C0F1
:1000100023C022C021C020C01FC01EC0D1C5302EA9
:10002000303111241FBECFE5D2E0DEBFCDBF10E0DE
:10003000A0E6B0E0ECE6FBE102C005900D92A4362C
:10004000B107D9F720E0A4E6B0E001C01D92A53BBE
:10005000B207E1F74CD688CDD3CF382FFC018FEF14
:100060009FEF2E2F231B261708F00895219182273A
:1000700028E0AC014170552796958795452B21F0D6
:1000800041E0842740EA9427215099F7EACF982F3E
:1000900096959575880F8A7A982B892F86958695DF
:1000A0008373990F990F9C7C892B82950895CF9229
:1000B000DF92EF92FF920F931F93CF93DF93FC0198
:1000C000FF24F39492E0D92E24E5C22EEE24EA9484
:1000D000D62FD80F8F010F5F1F4F8081C091AA00CC
:1000E000CF5FCF719091A900C917E1F3D0DFEC2F5A
:1000F000F0E0E757FF4F8083C093AA008091AC00E7
:1001000080FD16C08091AC0082FDFCCFF89412BE39
:10011000FCBCF3BED8BE89B7826089BFCDB8EFB84A
:10012000EEB8B99A8091AC0081608093AC0078946D
:10013000F801D013CFCFDF91CF911F910F91FF9096
:10014000EF90DF90CF9008951F93CF93DF93EC0152
:10015000162F6EEF610F81DF9E01210F311DF90116
:100160003297808321503109F9019083612FCE01AC
:10017000DF91CF911F919BCFFC01218120582183DA
:10018000628365E0E1CF9FB7F894BC9AC49820E100
:100190002A95F1F7BC98C49888E18A95F1F786B35F
:1001A00022E92A95F1F700C09FBF80710895CF938F
:1001B000DF93D8E0C0E0C695E6DF8111C068D1507A
:1001C000D1F78C2FDF91CF9108959FB7F894BC9A07
:1001D000C498EFEBF3E03197F1F700C00000BC9852
:1001E000C498FAEBFA95F1F700C086B3E3E3F3E0C5
:1001F0003197F1F700C000009FBF8095807108958E
:100200008FB7F894BC9AC49890EA9A95F1F7BC9885
:10021000C4989AE19A95F1F700C08FBF08958FB7FF
:10022000F894BC9AC49890E19A95F1F7BC98C49858
:100230009AEA9A95F1F700C08FBF0895CF93DF93A4
:10024000D82FC8E0D0FF07C0EADFD695C150D1F75C
:10025000DF91CF910895D4DFF8CFEF92FF920F9303
:100260001F93CF93DF93EC0185E5E8DF8E01085FF4
:100270001F4F7E018FEFE81AF80A8881DFDFE70160
:10028000E016F106B1F7DF91CF911F910F91FF902A
:10029000EF9008958F929F92AF92BF92CF92DF928C
:1002A000EF92FF92CF9386B1877D86B9379A8FE818
:1002B00087B98FE99FE00197F1F700C00000C4E023
:1002C000C12CD12C7601369A3699FECF64B175B126
:1002D00090E080E052DB9B01AC01C701B60153DA2C
:1002E0006B017C01C15079F720E030E040E85EE32B
:1002F000D0DB4B015C013798379A8CE187B98FE9E5
:100300009FE00197F1F700C00000C4E0C12CD12CA0
:100310007601369A3699FECF64B175B190E080E0EF
:100320002CDB9B01AC01C701B6012DDA6B017C010E
:10033000C15079F720E030E040E85EE3AADB9B01A2
:10034000AC016DEC7CEC8CE894E481DA6B017C010F
:10035000379820E030E040E251E49BDBE0DACDE08A
:100360006E3128F4613108F461E1CFEEC60FC0921E
:10037000B100D092B200E092B300F092B40023E357
:1003800033E748E853E4C501B401FCD92AE939E967
:1003900049E85FE35CDA6B017C016C2F70E090E070
:1003A00080E0E9DA20E030E040E551E450DA9B01FA
:1003B000AC01C701B601E7D96093AD007093AE0000
:1003C0008093AF009093B000CF91FF90EF90DF90BB
:1003D000CF90BF90AF909F908F90089571E0BA9AA0
:1003E000BC98000000000000DCD3BA98DAD3A894CF
:1003F000000000000000B29BCFD3B2F08894B49903
:100400000894771F60F7BA9A803011F0BC9801C049
:10041000BC9A000000000000C4D3BA98A894000061
:100420000000B29BB9D3BDD300000000BA9A872F59
:100430009927089580E208950894881F01C0880FC5
:10044000B9F0BA9A00000000000018F40000BC984F
:1004500002C0BC9A00C0A5D3BA98A89400000000BE
:100460000000B29B99D312F4882712C09AD3E7CF29
:10047000BA9A00000000BC9894D399278827BA98AC
:10048000A8940000B29B88D37AF3B49B81E089D30F
:1004900000000000BA9A089581E00895BA9ABC9AC3
:1004A00080D3BA987ED3B29B77D3BC987AD3789412
:1004B0000895F894BA9A75D3BC9873D3BA9871D347
:1004C000B29B6AD3BC9A6DD3B7CF81E00895F894FC
:1004D000B29B62D3BC9A65D3AFCF81E00895CF932E
:1004E000DF93D62FC42F880FF2DF8D2FA5DF8C2F3F
:1004F000A3DFDF91CF91D2CFCF93482F406868E13F
:1005000080E6EDDF80ECE3DF8EE296DF81ECD1DF89
:1005100081E064DFC82FC2DF8C2FCF910895CF9385
:10052000C82F462F67E180E6DADF4C2F406A68E18A
:1005300080E6D5DF80ECCBDF8EE27EDF81ECB9DFB9
:1005400081E04CDFC82FAADF8C2FCF910895BC9893
:10055000BA98C498C29888279927B49B0895B29BEB
:10056000089581E0089581E008952F923F924F927F
:100570005F926F927F928F929F92AF92BF92CF9233
:10058000DF92EF92FF920F931F93CF93DF93CDB73C
:10059000DEB764970FB6F894DEBF0FBECDBFA82EAE
:1005A000D6DF8EEE94DF8EE847DF8FEE82DF80E0CD
:1005B00015DF898380E012DF8A8380E00FDF8B8381
:1005C00080E00CDF8C8380E009DF182F80E006DFFD
:1005D000982E80E003DF8D8380E000DF8E8380E053
:1005E000FDDE8F8380E0FADE888780E0F7DE898792
:1005F00080E0F4DE8A8780E0F1DE8B8780E0EEDE4B
:100600008C8780E0EBDE8D8780E0E8DE8E8780E0FF
:10061000E5DE8F8781E0E2DE888B40DF8EEE57DFFC
:1006200087EF0ADF8FEE45DF80E0D8DE082F80E01D
:10063000D5DE898B80E0D2DE8A8B80E0CFDE90E051
:10064000B0E0A0E02C013D018CE0440C551C661C80
:10065000771C8A95D1F780E0C1DE90E0B0E0A0E0A1
:100660006C017D0194E0CC0CDD1CEE1CFF1C9A9506
:10067000D1F7C428D528E628F72881E0AFDE829597
:100680008F70C82A0BDF8EEE22DF88E8D5DE8FEE72
:1006900010DF80E0A3DE282F30E03C8B2B8B80E046
:1006A0009DDE4B895C89582B5C8B4B8B80E096DE02
:1006B000B82E80E093DE282E80E090DE882E81E048
:1006C0008DDE382EEBDE8B899C89AC0170E060E01A
:1006D0002601370124E075946794579447942A952E
:1006E000D1F7441A550A660A770AD701C60133E0E2
:1006F000B595A795979587953A95D1F7440F551FCE
:10070000661F771F6C017D01C41AD50AE60AF70A35
:10071000C701B601322D2B2D032E000C440B550BB7
:10072000EFD76B017C01FBE0F594E794D794C79475
:10073000FA95D1F7A3019201C301B201E1D7ACE070
:100740009595879577956795AA95D1F7332D282D9F
:10075000032E000C440B550BD3D7BEE0959587951F
:1007600077956795BA95D1F76C0D7D1D8E1D9F1DF0
:10077000DD24D394AD1469F125E030E040E050E091
:10078000BFD74B015C0120E8820E911CA11CB11C5B
:10079000892C9A2CAB2CBB24A7FCBA94C501B401BC
:1007A00064960FB6F894DEBF0FBECDBFDF91CF9138
:1007B0001F910F91FF90EF90DF90CF90BF90AF907F
:1007C0009F908F907F906F905F904F903F902F9071
:1007D00008956B017C01F594E794D794C7943AEFA0
:1007E000D31AE108F108C701B60122E09595879573
:1007F000779567952A95D1F79B01AC0181D72B019D
:100800003C01792D612F072E000C880B990BA30159
:100810009201EDE05595479537952795EA95D1F7E3
:100820006FD74B015C01F3E0B594A794979487943C
:10083000FA95D1F74C815B81742F652F072E000C40
:10084000880B990BA70196015BD7959587957795AE
:100850006795680D791D8A1D9B1DB2E19595879559
:1008600077956795BA95D1F770588F4F9F4FEA816A
:10087000F9813E2F2F2F50E040E042D74B015C0121
:100880001FE0B594A794979487941A95D1F7811493
:100890009104A104B10409F481CF2A853985722F0E
:1008A000632F072E000C880B990BA3019201EBE03C
:1008B0005595479537952795EA95D1F721D72B017F
:1008C0003C0148855F81742F652F072E000C880B33
:1008D000990BA701960114D7AB01BC01440F551F1A
:1008E000661F771F440D551D661D771DA2E0759587
:1008F000679557954795AA95D1F710E030E020E02D
:10090000BCE0000F111F221F331FBA95D1F7CE8014
:10091000DD809C2D8D2D092E000CAA0BBB0BDC015C
:1009200099278827840F951FA61FB71FBC01CD01EB
:10093000FCE09595879577956795FA95D1F7E988C5
:100940004E2C512C712C612CA4E0440C551C661CBF
:10095000771CAA95D1F74A8942954F70442A402ABC
:10096000512A622A732A640D751D861D971D2BEC72
:1009700033EF4FEF5FEFC4D6805B9C4397FD68C0B9
:10098000660F771F881F991FA5019401D2D62901F0
:100990003A01C301B20123E0969587957795679553
:1009A0002A95D1F7F888EF8467010D2C000CEE082A
:1009B000FF089B01AC01A4D69B01AC016DE05695EC
:1009C0004795379527956A95D1F7C701B60198D60F
:1009D0006B017C017CE0F594E794D794C7947A95F9
:1009E000D1F72E853D85722F632F072E000C880BC3
:1009F000990BA3019201E2E056954795379527950B
:100A0000EA95D1F77DD64B015C01FDE0B594A79442
:100A100097948794FA95D1F78C0C9D1CAE1CBF1C43
:100A2000EC84FB84DE2CCF2C0D2C000CEE08FF0890
:100A30008C0C9D1CAE1CBF1CA4E0B594A79497948D
:100A40008794AA95D1F7840C951CA61CB71CA6CE3A
:100A5000A50194016ED629013A01440C551C661C6F
:100A6000771C97CFCF92DF92EF92FF921F93CF9395
:100A7000DF93182F6CDD46E068E180E630DD8FE221
:100A800095E70197F1F700C0000080EC20DD812F91
:100A9000D3DC81EC0EDD80E0A1DCC82FD0E081E06A
:100AA0009DDCD82BFBDC1432E1F01C3209F46AC067
:100AB000123209F05DC08091600090916100C8170A
:100AC000D90720F4D0936100C0936000809160004A
:100AD00090916100C81BD90B82E10EDD182F81E1D6
:100AE00015C08091620090916300C817D90720F467
:100AF000D0936300C0936200809162009091630084
:100B0000C81BD90B8FE1F8DC182F8EE1F5DCC12C66
:100B1000D12C20E8E22E2FE3F22E15FF06C0C12CC7
:100B2000D12C98E6E92E91E4F92E61E070E002C044
:100B3000660F771F8A95E2F7072E000C880B990B3A
:100B40001CD726EF38E24CE150E4A3D79B01AC015F
:100B5000C701B6017CD66B017C01BE0190E080E04C
:100B60000AD79B01AC01C701B60193D76B017C0189
:100B7000C701B601DF91CF911F91FF90EF90DF90F9
:100B8000CF900895BE0190E080E0F5D620E030E0FF
:100B900048EC52E45CD6EACFB29BFECFA89408950D
:100BA000089598E09A95F1F7089508958F938FB777
:100BB0008F9382B78E5C82BF8F918FBF8F91189574
:100BC0001F921FB61F9211248F939F93EF93FF9351
:100BD0008091AC0080FF4FC0C39A8091AC0081FF30
:100BE00016C08091AC008D7F8093AC008BEF8EB9E6
:100BF0008091AB00880F880F880F87608FB9FF91B5
:100C0000EF919F918F911F901FBE1F90189590910B
:100C1000AA008091A9009817C9F08091AC00826069
:100C20008093AC00E091A900EF5FEF71E093A90021
:100C3000F0E0E757FF4F80818093AB008BEF8EB9D8
:100C40008091AB00869586958068D8CFC3988091B7
:100C5000AC008E7F8093AC0013BE88B3836088BBEA
:100C600087B38C7F87BB1DB880E28ABF8BB7806259
:100C70008BBFA89AC4CFC3988091AC008B7F809320
:100C8000AC00E0918800EF5FEF71809187008E13D8
:100C900004C08091AC008860DDCFE09388008FB104
:100CA000F0E0E959FF4F8083D7CF8F938FB78F93B1
:100CB000B09919C081E182BF82B7885682BF81E0B6
:100CC0008CBD83BF82E088BF89B7826089BF84E51D
:100CD0008DB987EF8EB98BB78F7D8BBF8091AC00BC
:100CE00084608093AC008F918FBF8F911895CDB7A2
:100CF000DEB7CA54D1400FB6F894DEBF0FBECDBFE9
:100D0000F89480E090E0D5D4482EC4DABA98BC9824
:100D1000C4988FEB93E00197F1F700C000001092A8
:100D20008700109288001092A9001092AA00BB9A26
:100D3000C39888B3836088BB87B38C7F87BB1DB89B
:100D400080E28ABF8BB780628BBFA89A78948E01AD
:100D50000F5D1E4FD8011B96C75BDE4FB983A8837A
:100D6000C954D140FE013296CE5BDE4FF983E88351
:100D7000C254D140A895909188008091870098171F
:100D8000C9F38FE097E20197F1F700C0000090915E
:100D9000880080918700981769F3FE01E65CFE4F9A
:100DA000CF0107966F01218121938E179F07D9F7F5
:100DB00090918800809187009817D1F3E091870087
:100DC000EF5FEF71E0938700F0E0E959FF4F80811A
:100DD0005ED9D60117968C9317979C919411D7CF13
:100DE0001196BC909DEF9B0D923018F0B6E0BB12AF
:100DF000CECFF601E680F82E66E0C6012ED98E151C
:100E00009F0529F6D6011296ED90FC901397FE24CB
:100E1000EF24FE241596AC90159714968C91F8014A
:100E20004082F4E0BF1609F482C026E0B21609F44D
:100E300031C343E0B412ABCFD8011196BC921197E5
:100E4000E114F10451F4B1E0AB12A1CF82E0F8015A
:100E500082831382148267E023C0F1E0EF16F1046D
:100E600011F522E0A21293CF84E012968C93129790
:100E7000EEE1F0E0E4911396EC931397EFE1F0E0EC
:100E8000E4911496EC931497E0E2F0E0E491159667
:100E9000EC931597E1E2F0E0E4911696EC9369E0AB
:100EA000C80152D974CFB2E0EB16F10479F4E1E055
:100EB000AE126DCF82E0D80112968C9380E090E064
:100EC000F8D3482EF80113828483C5CFF3E0EF16E0
:100ED000F104B9F422E0A2125ACF84E0D8011296AC
:100EE0008C93D8D96091B1007091B2008091B30019
:100EF0009091B40040D4F801638374838583968312
:100F0000CECFF4E0EF16F10409F041CF22E0A212B7
:100F10003ECF84E0D80112968C93BCD96091AD008D
:100F20007091AE008091AF009091B000E3CFD801F6
:100F30001196BC921197E114F10409F04AC0B1E096
:100F4000AB1225CF82E0F8018283138280E2848392
:100F500067E0C801F9D8C7019251029708F06BC148
:100F6000D60115968C91823009F011CF84E0F801FA
:100F70008283E114F2E1FF0609F0CCC1E8DA80E8EF
:100F8000A6DA83EE59DA81E894DA80E027DAE82EEF
:100F9000F12CFE2CEE2481E021DAE82A7FDAB70179
:100FA00090E080E02DEC35E540E050E0A9D34DE045
:100FB00096958795779567954A95D1F76250774BC7
:100FC00081099109DAD420E030E04AE754E43FD4C3
:100FD00054C2F1E0EF16F10409F0F6C021E0A212CC
:100FE000D6CE82E012968C93129713961C92F894A8
:100FF000FE0131964F0110821182128213821482F7
:1010000015821682178210863996E017F10799F734
:10101000DCD881110FC0789480E0D4019C9190318C
:1010200009F48F5FB9E08B0E911C80169106A9F729
:10103000F8018DCFCE5BDE4FE881C254D140CD5B4D
:10104000DE4FF881C354D140CB5BDE4F1882C554CC
:10105000D1402E2ECC5BDE4FF883C454D140312CCE
:1010600088E0A22DCC5BDE4FB881C454D140019002
:101070000D928A95E1F7A9D880EFE0D855245394D2
:1010800077247394A22CCC5BDE4FB880C454D1403B
:10109000612C79D8C85BDE4F8883C854D14073D89F
:1010A000C85BDE4F4881C854D140442309F430C2A4
:1010B000811169C0D5018C9187298C93D5018C91C0
:1010C000872109F45EC0ABD85394770C29F4BFEFA5
:1010D000AB1ABB0A77247394E1E45E12DACF832D56
:1010E00090E069E070E0FBD2880D991DE0E1DC0141
:1010F000EC933394832D90E069E070E0F0D2880D9A
:10110000991D0196CB5BDE4F6882C554D140E22D1C
:10111000CC5BDE4FF881C454D14061100EC09E01FB
:10112000275F3F4F90E0391231C07894662009F470
:1011300073CF61E1C80120D80ECF282ECC5BDE4FE3
:101140009883C454D1408CCFCB5BDE4FF881C5541B
:10115000D140F51104C09729D5019C93AFCFCB5B4B
:10116000DE4FB881C554D140B51538F4872D809530
:101170009823F5019083652CA1CF972109F09ECF8C
:10118000FACF3ED8A1CF66246A94A9CFF901379748
:1011900080E0519148E0652F6827869560FF02C086
:1011A0006CE8862756954150B1F72E173F0789F70F
:1011B000275F3F4FF90139974081481302C09F5F75
:1011C000B2CF66246A94B1CFC7019A95819708F08F
:1011D000AAC1F4E0AF12DBCD88E012968C939701A0
:1011E0003327C90169E070E07AD2E1E0F0E0EC0F6A
:1011F000FD1F8E0F9F1FDC018C91803109F07FC095
:10120000C90169E070E06BD20196E1E0F0E0EC0F1B
:10121000FD1FE80FF91FD801139681918D93C75BCD
:10122000DE4F48815981C954D1404A175B07A9F75D
:101230006DE0C80189D7C70180519241039708F436
:101240008EC0B0E2EB16B2E1FB0609F009C2F6016E
:101250008581823009F09BCD84E0D80112968C9371
:1012600080916500811113C0F89486E430D981E142
:10127000E3D814D97894BFE7E0E2F5E0B150E0405C
:10128000F040E1F700C0000081E080936500F89431
:101290005ED987E41CD980E0A1D8282F2695C95BA8
:1012A000DE4F2883C754D140879588278795CA5B2E
:1012B000DE4F8883C654D14081E090D8D82EE82EE6
:1012C000E694CA5BDE4F48815981C654D1404E0D29
:1012D000511D7A01E3D87894B70190E080E04BD3B8
:1012E00020E030E0A901D0FE04C020E030E040E082
:1012F0005FE349D22AE939E949E95FE368CE62E070
:10130000C8013AD798CF6DEF7FEF99C162E0C8016D
:1013100033D7A6C11CD980E8DAD885EE8DD881E80C
:10132000C8D880E05BD8E82EF12CFE2CEE2481E0BA
:1013300055D8E82AB3D8B70190E080E029E03DE332
:1013400040E050E0DDD12DE0969587957795679543
:101350002A95D1F7605777418109910933CEF6017B
:101360008581823009F013CD84E0D80112968C93E8
:1013700080916600811173C0F894EFE5FAEE319721
:10138000F1F700C0000040E068E080E6A8D840E047
:1013900069E080E6A4D840E064E080E6A0D840E0C0
:1013A00065E080E69CD840E066E080E698D840E0C2
:1013B00063E080E694D84FEF61E280E690D841E0A8
:1013C00068E180E68CD88FE19EE40197F1F700C0D8
:1013D000000047E167E080E682D8AFE1BEE4119704
:1013E000F1F700C000004BE763E180E678D84BE6F8
:1013F00064E180E674D841E065E180E670D840E0C1
:1014000066E180E66CD860EB81E089D840E063E07B
:1014100080E665D841E064E080E661D860E08EE077
:101420007ED860E08EE17BD860E78DE178D860E21D
:101430008FE175D860E081E172D860E780E16FD814
:1014400060E282E16CD840E068E080E648D840E0A5
:1014500069E080E644D8789481E08093660082E277
:10146000B0E1EB16B2E1FB0639F084E2E1E1EE1601
:10147000E2E1FE0609F08CE2F5DAD80113969C93BE
:10148000139714968C93149715967C93159716962C
:101490006C9305CDD8011196BC92E114F10411F5BD
:1014A00081111CC0B1E0AB1219C068E0C601FFD5C4
:1014B000EFE7F8E321E0E150F0402040E1F700C021
:1014C0000000F894E2E4EF93EFE4EF93EFE4EF939E
:1014D000E4E5EF93E0E0FEE0099459CC63E0C60157
:1014E0004BD655CCEA94EF2809F051CC81110DC0B0
:1014F0008FEF8A0D8E3F48F46A2D80E090E0E1D0B6
:1015000068E0C601D4D54A2C42CC63E0C801E8CFDC
:10151000D5019C91882309F417CE872D80959823B7
:10152000F5019083CBCDC7019250819708F013CD80
:1015300052E0A5122CCCD8011296BC929701332709
:10154000C90169E070E0CBD0E1E0F0E0EC0FFD1FF5
:101550008E0F9F1FDC018C91803109F0D7CEF8945B
:10156000C90169E070E0BBD001965F01A80EB91E09
:101570002CD6882309F4C7CEC5016FD684E45ED685
:1015800002D68823E9F321D6882309F4BCCEC5010D
:1015900064D68EEB53D60BD6B82ECF5CDE4F888345
:1015A000C153D14004D6A82ECE5CDE4F8883C253EF
:1015B000D140FDD5CD5CDE4F8883C353D140F7D5F4
:1015C000CC5CDE4F8883C453D140F1D5CB5CDE4F79
:1015D0008883C553D140EBD5CA5CDE4F8883C653A0
:1015E000D140E5D5C95CDE4F8883C753D140DFD5F4
:1015F000C85CDE4F8883C853D140D9D5C75CDE4F65
:101600008883C953D140FE01EF5CFE4FAF01485FB4
:101610005F4F90E0319128E0632F6927969560FF36
:1016200002C0BCE89B2736952150B1F74E175F07E3
:1016300089F77A2D6B2D891711F06EEF7FEF789473
:1016400090E080E098D120E030E040E85DE321D2F6
:10165000F801938384837583668369E0C80174D538
:10166000C70180539241029708F091CBF601858122
:10167000823009F08CCB84E0D80112968C93809153
:10168000640081110DC063D747E264EF87E727D775
:1016900040EA65EF87E723D701D781E080936400B4
:1016A00080E0B0E3EB16B2E1FB0609F081E05DD724
:1016B00021CCE199FECF9FBB8EBBE09A99278DB3D9
:1016C0000895262FE199FECF1CBA9FBB8EBB2DBB80
:1016D0000FB6F894E29AE19A0FBE0196089500249D
:1016E000552704C0080E591F880F991F009729F02D
:1016F00076956795B8F37105B9F7802D952F089504
:10170000EE27FF27AA27BB2708C0A20FB31FE41F9D
:10171000F51F220F331F441F551F96958795779508
:10172000679598F37040A9F7009799F7BD01CF012D
:101730000895A1E21A2EAA1BBB1BFD010DC0AA1F12
:10174000BB1FEE1FFF1FA217B307E407F50720F02A
:10175000A21BB30BE40BF50B661F771F881F991FA5
:101760001A9469F760957095809590959B01AC01EE
:10177000BD01CF0108956927962769277827872714
:10178000782708955058BB27AA270ED048C139D1D1
:1017900030F03ED120F031F49F3F11F41EF42EC101
:1017A0000EF4E095E7FB24C1E92F4AD180F3BA1784
:1017B000620773078407950718F071F49EF562C1FC
:1017C0000EF4E0950B2EBA2FA02D0B01B90190015C
:1017D0000C01CA01A0011124FF27591B99F0593FA0
:1017E00050F4503E68F11A16F040A22F232F342FE8
:1017F0004427585FF3CF469537952795A795F04036
:101800005395C9F77EF41F16BA0B620B730B840B4A
:10181000BAF09150A1F0FF0FBB1F661F771F881F02
:10182000C2F70EC0BA0F621F731F841F48F487955A
:1018300077956795B795F7959E3F08F0B3CF939549
:10184000880F08F09927EE0F9795879508950CD08B
:10185000E6C0DED040F0D5D030F021F45F3F19F083
:10186000C7C0511110C1CAC0EBD098F39923C9F376
:101870005523B1F3951B550BBB27AA276217730796
:10188000840738F09F5F5F4F220F331F441FAA1F4A
:10189000A9F333D00E2E3AF0E0E830D0915050400A
:1018A000E695001CCAF729D0FE2F27D0660F771FB8
:1018B000881FBB1F261737074807AB07B0E809F09A
:1018C000BB0B802DBF01FF2793585F4F2AF09E3F2F
:1018D000510568F08DC0D7C05F3FECF3983EDCF354
:1018E000869577956795B795F7959F5FC9F7880FA8
:1018F000911D9695879597F90895E1E0660F771FFA
:10190000881FBB1F621773078407BA0720F0621B8A
:10191000730B840BBA0BEE1F88F7E095089598D0EF
:1019200088F09F5790F0B92F9927B751A0F0D1F0C8
:10193000660F771F881F991F1AF0BA95C9F712C052
:10194000B13081F09FD0B1E008959CC0672F782F0F
:101950008827B85F39F0B93FCCF3869577956795BE
:10196000B395D9F73EF490958095709561957F4F2A
:101970008F4F9F4F0895E89409C097FB3EF49095D0
:101980008095709561957F4F8F4F9F4F9923A9F058
:10199000F92F96E9BB279395F695879577956795E7
:1019A000B795F111F8CFFAF4BB0F11F460FF1BC02B
:1019B0006F5F7F4F8F4F9F4F16C0882311F096E9BE
:1019C00011C0772321F09EE8872F762F05C066236C
:1019D00071F096E8862F70E060E02AF09A95660F25
:1019E000771F881FDAF7880F9695879597F90895DE
:1019F00097F99F6780E870E060E008959FEF80ECC2
:101A0000089500240A941616170618060906089564
:101A100000240A9412161306140605060895092ECA
:101A20000394000C11F4882352F0BB0F40F4BF2B39
:101A300011F460FF04C06F5F7F4F8F4F9F4F089579
:101A400057FD9058440F551F59F05F3F71F047956F
:101A5000880F97FB991F61F09F3F79F08795089554
:101A6000121613061406551FF2CF4695F1DF08C073
:101A7000161617061806991FF1CF86957105610590
:101A800008940895E894BB2766277727CB0197F938
:101A900008950AD0C4CFB5DF28F0BADF18F0952337
:101AA00009F0A6CFABCFEFCFCBDFA8F39923D9F3C3
:101AB0005523C9F3950F50E0551FAA27EE27FF279E
:101AC000BB2700240894679520F4E20FF31FB41F8E
:101AD0000A1E220F331F441FAA1F6695A9F7779588
:101AE00030F4F30FB41F0A1E121E08F46395330F6F
:101AF000441FAA1F221F769599F7879520F4B40FEB
:101B00000A1E121E631F440FAA1F221F331F869531
:101B1000A9F7862F712D602D11249F5750408AF010
:101B2000E1F088234AF0EE0FFF1FBB1F661F771FEF
:101B3000881F91505040A9F79E3F510570F058CF33
:101B4000A2CF5F3FECF3983EDCF3869577956795DF
:101B5000B795F795E7959F5FC1F7FE2B880F911D0D
:0C1B60009695879597F90895F894FFCFAB
:041B6C000001000173
:00000001FF
