:1000000043C05DC089C05BC05AC059C058C057C00A
:1000100056C055C054C053C052C051C050C007CA8A
:100020005CC8ADC8CBC8F4C824C93BC958C998C975
:1000300099C9ABC9B8C9F9C9F8C9F7C9F6C9F5C9A9
:10004000E1C90902190001010080640904000001EE
:10005000FF00000007058103080064120110010081
:1000600000000881179F0C040100020301160355CC
:100070000053004200740069006E00790053005084
:10008000004900040309040011241FBECFE5D2E09B
:10009000DEBFCDBF10E0A0E6B0E0E4ECF4E102C0CA
:1000A00005900D92A037B107D9F711E0A0E7B0E0B5
:1000B00001C01D92A839B107E1F77AD701CAA0CFD4
:1000C000A82FB92F80E090E041E050EA609530E041
:1000D00009C02D9182279795879510F08427952741
:1000E000305EC8F36F5FA8F30895EADF8D939D93A8
:1000F0000895A6E088279927AA9569F00197E1F36A
:10010000B399FCCFB39BFECF81E09927A6B30196AC
:1001100011F0A871D9F70895CF93CFB7CF93C395B6
:10012000B39BE9F7B39B0BC0B39B09C0B39B07C05C
:10013000B39B05C0B39B03C0B39B01C0D5C00F9256
:10014000DF93C0916A01DD27CF58DE4F012EB39BAC
:1001500003C0DF910F90E6CF2F930F931F934F9320
:100160002FEF4F6F06B303FB20F95F933F9350E0EF
:100170003BE065C016B30126502953FDC89556B320
:10018000012703FB25F92F7306B3B1F05027102781
:1001900013FB26F906B22230F0F000C016B3012797
:1001A00003FB27F90126502906B22430E8F54F77E2
:1001B000206816B30000F6CF50274F7D206206B2AC
:1001C000102F000000C006B300265029102713FB93
:1001D00026F906B2E2CF4F7B06B3206400C0DACF27
:1001E00001265029187106B269F14E7F2160012F56
:1001F00016B328C0002650294D7F06B22260102F6A
:1002000029C0012650294B7F06B22460012F2DC042
:1002100016B301265029477F2860000006B22EC081
:100220004F7E06B3206130C0422706B349930026B3
:100230005029102706B24FEF13FB20F9297F16B380
:1002400079F2187159F10126502906B2012703FBF2
:1002500021F9237F06B371F2002650293150D0F0E6
:1002600006B2102713FB22F9277E16B351F201269E
:100270005029012703FB06B223F92F7C49F2000025
:1002800006B3102713FB24F90026502906B22F7954
:1002900039F270CF10E21ABF002719C03B503195D8
:1002A000C31BD04010E21ABF0881033C09F10B3494
:1002B000F9F0209168011981110F1213EDCF4A81D5
:1002C000441F093651F10D3211F0013E29F7009318
:1002D0006F013F915F914F911F910F912F91DF918E
:1002E0000F90CAB7C5FD1BCFCF91CFBFCF91189547
:1002F00020916F01222369F310916D01112379F58B
:1003000034307AF130936D012093690110916A01C4
:100310003BE0311B30936A0124C000916D01013034
:10032000F4F40AE54F7049F43091600034FD1AC0CE
:1003300000936000C1E5D1E019C030915C0134FD4B
:1003400011C000935C01CDE5D1E010C0052710E09D
:1003500000C021C0052710E0C89508BB14C03AE5CD
:1003600001C032ED032EC0E0D0E032E017B31861D7
:10037000C39A08B317BB58E120E84FEF20FF0527C9
:1003800008BB279517951C3F28F700004552B0F78A
:1003900020FF0527279508BB17951C3FB8F6299124
:1003A0003A9561F7077E10916E01110F08BBC2509C
:1003B000D04011F01093680110E21ABF086017B323
:1003C000177E402F477E54E05A95F1F708BB17BBC4
:1003D00048BB7FCFCF93DF9360916D01635067FD82
:1003E000BFC020916A018CE090E0821B9109EC0172
:1003F000CF58DE4F209169012D3209F09FC068303F
:1004000009F0ACC023EC209351012AE52093600051
:10041000109270002881207631F0CE01F9D18F3F03
:1004200009F47BC081C03A8110925A0129812223AC
:1004300031F410925B012AE531E082E069C0253099
:1004400019F430936E0161C0263009F048C0FC01F8
:10045000ED58FE4F20818C589E4FFC0180818130E9
:1004600049F48BE590E090936C0180936B0190E4EC
:1004700082E132C0823049F482E490E090936C01D2
:1004800080936B0190E489E127C0833019F5222322
:1004900049F483E890E090936C0180936B0190E4C1
:1004A00084E01AC02130B1F0223049F48DE690E0AA
:1004B00090936C0180936B0190E486E10DC0233032
:1004C00049F482E690E090936C0180936B0190E098
:1004D00088E002C090E480E09093700025C028304E
:1004E00069F0293019F4309370010FC02A3049F0B7
:1004F0002B3059F48BE480935D0107C020E731E095
:1005000002C02AE531E081E003C02AE531E080E065
:1005100030936C0120936B0107C0988197FD8E8109
:1005200090E89093700007C09F81992321F49E81E9
:10053000981708F4892F8093610010C08091700093
:1005400087FF0CC0CE01F9D08F3F21F48EE180935C
:10055000600004C0882311F01092610010926D01B8
:100560008091600084FF54C0809161008F3F09F446
:100570004FC0C82F893008F0C8E08C1B8093610001
:100580008091510198E8892780935101CC2379F11A
:100590002091700027FF08C082E591E06C2FADD05C
:1005A000C82F893078F523C080916B0190916C0140
:1005B00026FF0AC0FC012C2FA2E5B1E034913D9347
:1005C00031962150D9F708C0DC012C2FE2E5F1E08B
:1005D0003D9131932150E1F72C2F215030E02F5FD6
:1005E0003F4F280F391F30936C0120936B0182E538
:1005F00091E06C2F7ADDCC5FCC3041F08FEF8093AF
:10060000610004C08FEF80936100CEE1C093600071
:1006100084E196B3987131F48150D9F710926E014C
:1006200010926801C1E08111C0E0809171008C17C7
:1006300029F0CC2309F415D3C0937100DF91CF9139
:100640000895AC9A8BB780628BBF8BE480935D0179
:100650008AE580935C010895FC01DB0134E051914F
:1006600088E090E040E820E0642F652309F0C09A1C
:1006700060916C00062E00C00000000000000A948B
:10068000D1F7C29A60916C00062E00C000000000F5
:1006900000000A94D1F7220FB1992F5FC098C29839
:1006A0004695019709F72D933150C9F60895809129
:1006B0007700909178009C012F5F3F4F3093780036
:1006C000209377002091790027FF02C0880F991F9F
:1006D00020937A0080FF03C0286020937A00292F9E
:1006E000269520937B009695879580937C008AE7DA
:1006F00090E063E770E0B0DF0895EF92FF921F9300
:10070000CF93DF930F92CDB7DEB7182F862FE12E50
:10071000F92E08C08983CBDF90917600F701919381
:100720007F0189819E2D911B9817A0F30F90DF9177
:10073000CF911F91FF90EF900895DF92EF92FF927B
:100740000F931F93CF93DF93182F062FE82EF92EC8
:1007500050E6D52E32C0F70181917F0180937D0054
:10076000A6DF80917A008D2580937A00C0E0D0E0EA
:100770001DC08AE790E063E770E06EDF809176004D
:1007800090917D00891741F490917E00891721F0A6
:1007900090917F00891789F420916C0030E045E04A
:1007A000220F331F4A95E1F7C20FD31F80918000BB
:1007B00090918100C817D907E0F28E2D811B801718
:1007C00050F281E0DF91CF911F910F91FF90EF9058
:1007D000DF900895FC0188B3942F9095982388B3F7
:1007E000842B12C0219138E088BB220F3A9500C0BB
:1007F00008F098BB00C0000098BB21F000C000C00A
:1008000000C0F2CF615070406115710559F708952D
:10081000CF93DF93EC015981552341F481E2898321
:10082000D0936C01C0936B0188E018C2513011F471
:1008300086B30AC16A81523011F468BB0EC2762FAA
:10084000777081E090E0072E02C0880F991F0A940C
:10085000E2F7482F533029F488B34095482348BB2A
:10086000FCC1543019F488B3842B97C0553049F437
:1008700060936C00B99887B3856287BB88B3887D25
:100880008CC0563049F4B898C098B998C198BA98B5
:10089000C298BD98C598E1C1573051F4CE01029677
:1008A000BE01DADED0936C01C0936B0184E0D6C147
:1008B000583031F460937E008B8180937F00CDC1EE
:1008C0002C813D813093780020937700593011F4CA
:1008D00080E211C05B3011F480EA0DC02A813B81B7
:1008E00030938100209380005A3011F480E403C0DB
:1008F0005C3029F480EC809379008FEFAFC15D30DC
:1009000029F497B38095892387BBA7C15E3021F472
:1009100097B3982B97BBA1C15F3009F5662329F4E3
:100920008091820087B9A59A0CC0613031F4809122
:100930008200816087B9A29A04C0623011F48FE806
:1009400087B9369A3699FECF84B1888385B1898379
:10095000D0936C01C0936B0114BA82E07FC1503117
:1009600059F4B89AB99A8AB5806A8ABD8AB5836003
:100970008ABD83B7856039C0513121F469BD8C814E
:1009800088BD6BC1523121F498B3982B98BB65C1D7
:10099000533129F498B38095892388BB5EC15431C3
:1009A00059F426B330E02823392302C03595279522
:1009B0007A95E2F7288349C0563169F5662319F420
:1009C00083B78B7F24C0613031F483B78B7F83BFC3
:1009D00083B7826013C0623051F483B78B7F83BFCB
:1009E00083B7826083BF83B7816083BF36C16330C2
:1009F00049F483B7846083BF83B78D7F83BF83B798
:100A00008E7FF3CF643009F028C183B7846083BF41
:100A100083B78D7FE7CF5F3149F49B8180E0860FFC
:100A2000911D90936E0080936D0017C1503219F4A0
:100A30001ABC13BE12C1513221F46093900181E0BF
:100A400080C0523241F483E18883D0936C01C0931B
:100A50006B0181E003C15332D9F4379A86B19A8190
:100A6000892B86B98B81813049F0813020F082302A
:100A700009F0F3C007C010928200EFC0809182009D
:100A8000806803C080918200806980938200E5C005
:100A9000583249F487E891E090936C0180936B01A0
:100AA00080918F01DBC0593211F482E04AC05A3282
:100AB00011F483E00BC05B3211F484E042C05C327D
:100AC00011F488E03EC05D3231F489E08093720019
:100AD00060939001C2C05E3261F48BE0809372003B
:100AE000609390018B81809391018C81809392011E
:100AF000B4C05F3259F4613031F4B89AB99ABA9AF5
:100B000060938300AAC010928300A7C0503349F4B9
:100B1000609384008B81809385008C818093860014
:100B20009CC0513329F4609387001092880095C0CF
:100B3000523311F485E005C0533331F460939001D2
:100B400086E08093720089C0563371F565FF1BC043
:100B500080918900803CB8F49B81E82FF0E0E65753
:100B6000FF4F90839C81E82FEF5FF0E0E657FF4F47
:100B700090839D81E82FEE5FF0E0E657FF4F908372
:100B80008D5F809389008A8184FF67C0809189008E
:100B9000882309F462C081E18093720087B3842BBB
:100BA00087BB40934A0159C05733A1F480916A0032
:100BB00090916B0077D480916A0090916B000196C0
:100BC0006B8170D480916A0090916B0002966C8169
:100BD00069D443C0852F90E0807F9070803E91055E
:100BE000E9F48AE080937200852F877080939001EA
:100BF00058705093910120E00CC0822F90E0029633
:100C0000FE01E80FF91F308180579E4FFC013083B1
:100C10002F5F80919001281780F31FC0803F9105BE
:100C2000E1F487E080937200852F887080939001B3
:100C300057705093910120E00CC0822F90E00296F3
:100C4000FE01E80FF91F308180579E4FFC01308371
:100C50002F5F80919101281780F380E0DF91CF9181
:100C60000895DF92EF92FF920F931F93CF93DF933C
:100C7000C8E0D0E010E000E8D02ED10ED1BE39DAC5
:100C80007C0184E3E81689E0F8060CF41D2D069536
:100C9000219791F7812F815081BFC12FD0E02196FC
:100CA00010C027DA8453994097FF03C0909581952F
:100CB0009F4F8E159F0514F411B77C0181B78F5F8C
:100CC00081BF81B790E0C817D9075CF711BF61B742
:100CD00080E090E0E7D3DF91CF911F910F91FF90DB
:100CE000EF90DF900895882311F0B89801C0B89A6A
:100CF00090E005C025E02A95F1F700C09F5F492FDD
:100D000050E020918700309188004217530790F3FC
:100D1000BA9890E005C025E02A95F1F700C09F5FE2
:100D2000492F50E0209187003091880042175307E7
:100D300090F3BA9A90E005C025E02A95F1F700C03B
:100D40009F5F492F50E02091870030918800421723
:100D5000530790F38111B89A40E005C085E08A9569
:100D6000F1F700C04F5F242F30E080918700909111
:100D700088002817390790F30895B89840E005C017
:100D800025E02A95F1F700C04F5F242F30E08091D5
:100D90008700909188002817390790F3BA9840E0AF
:100DA00005C085E08A95F1F700C04F5F242F30E041
:100DB00080918700909188002817390790F386B3B7
:100DC00090E005C025E02A95F1F700C09F5F492F0C
:100DD00050E020918700309188004217530790F32C
:100DE000BA9A90E005C025E02A95F1F700C09F5F10
:100DF000492F50E020918700309188004217530717
:100E000090F38170089588B38A7F88BBBA98B898A8
:100E100040E005C085E08A95F1F700C04F5F242FC0
:100E200030E080918700909188002817390790F36F
:100E3000089587B38A7F87BB40E005C085E08A9527
:100E4000F1F700C04F5F242F30E080918700909130
:100E500088002817390790F3B89A40E005C085E06C
:100E60008A95F1F700C04F5F242F30E08091870012
:100E7000909188002817390790F3BA9A40E005C08E
:100E800085E08A95F1F700C04F5F242F30E0809114
:100E90008700909188002817390790F30895B89A31
:100EA00040E005C085E08A95F1F700C04F5F242F30
:100EB00030E080918700909188002817390790F3DF
:100EC000BA9A40E005C085E08A95F1F700C04F5F0F
:100ED000242F30E0809187009091880028173907EF
:100EE00090F3BA9840E005C085E08A95F1F700C01C
:100EF0004F5F242F30E08091870090918800281761
:100F0000390790F3B89840E005C085E08A95F1F77D
:100F100000C04F5F242F30E08091870090918800BF
:100F20002817390790F30895CF93DF93D82FC8E09F
:100F30008D2F8078D8DEDD0FC150D1F71EDFDF9115
:100F4000CF9108951F93CF93DF93182FD8E0C0E07F
:100F5000CC0F13DFC82BD150D9F780E005C095E046
:100F60009A95F1F700C08F5F482F50E020918700DD
:100F7000309188004217530790F3112311F080E05D
:100F800001C081E0B0DE80E005C095E09A95F1F700
:100F900000C08F5F482F50E020918700309188007B
:100FA0004217530790F38C2FDF91CF911F91089533
:100FB00080E287BB88BB80E090E06CD28F3F09F075
:100FC00081BFC0916A00D0916B00CE0163D2082F1F
:100FD000CE0101965FD2182FCE0102965BD200534C
:100FE0000A3030F410531A3018F480538A3088F0E5
:100FF000CE0165E357D280916A0090916B00019613
:1010000061E350D280916A0090916B00029662E396
:1010100049D2C0916A00D0916B00CE013BD280933F
:10102000640010926500CE01019634D206E610E00D
:1010300080936600F8011182CE0102962BD2809334
:101040006800F8011382BB9A84E1E2EBF1EF31977B
:10105000F1F700C000008150C1F7BB9885E090E037
:10106000909388008093870010926E0010926D001C
:101070002EE088E190E00FB6F894A89581BD0FBEF0
:1010800021BD10924B0110924C0110924D01109213
:101090008400109285001092860010924E011092EA
:1010A0007200CFDA7894B898C098B998C198BA9875
:1010B000C298BD98C5980BE11AE1F0E4FF2EA0E8B4
:1010C000EA2EA89587D9E0917200F0E0E231F105AF
:1010D00008F0ABC1E15FFF4F0994B89AB998BA9A8A
:1010E000C29A109287018091900180934F01E09203
:1010F00050013FC0C09840E005C0F5E0FA95F1F717
:1011000000C04F5F242F30E080916D0090916E0001
:101110002817390790F38091500190914F0189234E
:1011200009F0C09AC29880918701880F8093870147
:101130002091870186B390E0827090709595879595
:10114000280F2093870140E005C085E08A95F1F7DC
:1011500000C04F5F242F30E080916D0090916E00B1
:101160002817390790F3C29A809150018695809391
:10117000500180915001882309F0BCCF1DC0BA9A5C
:10118000C298EBEBF7E03197F1F700C000009FB792
:10119000F894C29AE0E2F1E03197F1F700C0BA9812
:1011A00081E0B29980E0809387019FBF8BE996E050
:1011B0000197F1F7BA9AC29A81E021C1809190011A
:1011C00080935001BA9A88E02FB7F894C298909112
:1011D000500190FF0BC091E29A95F1F7C29AE7E0B7
:1011E000F1E03197F1F700C0000009C0E7EFF0E04F
:1011F0003197F1F70000C29AF7E3FA95F1F7909171
:1012000050019695909350012FBF8150E9F60DC182
:101210001092870128E0809187018695809387014D
:10122000BA9A3FB7F894C29881E28A95F1F7C29AC8
:1012300097E39A95F1F7BA9886B390E0847090702E
:101240009595879595958795809350013FBFE2EEE0
:10125000F0E03197F1F700C0000080915001882341
:1012600029F080918701806880938701215099F649
:10127000A3CFBA9A2FB7F894C298F1E2FA95F1F792
:10128000C29A87E38A95F1F7BA9886B390E08470A2
:1012900090709595879595958795809387012FBF39
:1012A0008BCFBA9A8FB7F894C2989091900190FF23
:1012B0000BC091E29A95F1F7C29AE7E0F1E031971D
:1012C000F1F700C0000009C0E7EFF0E03197F1F757
:1012D0000000C29AF7E3FA95F1F78FBFA6C0B99A5A
:1012E000B898BA9AC29800934F011DB980919001A5
:1012F0008111C5981092500126C0F0E0EE56FE4FC5
:1013000080818FB9FEB880914F018DB940E005C052
:1013100085E08A95F1F700C04F5F242F30E080917F
:101320006D0090916E002817390790F3769BEBCFF4
:1013300080915001E82FF0E09FB1E957FE4F908374
:101340008F5F80935001E091500180919101E817E7
:10135000A0F2809190018111C59A809150014FC0F7
:1013600052DD63C080E090E064DD80919001DCDDBF
:101370008093500115C0EC2FF0E0EE56FE4F8081B7
:10138000D3DD80935001CF5F01C0C0E08091900118
:10139000C81788F380919101811181DD80915001FE
:1013A0008093870109CF80919001DD24882329F45F
:1013B0001CC081E0C7DD8883D3942D2D30E080915F
:1013C000910190E00197E901C957DE4F28173907CD
:1013D00084F380E0B7DD88830CC0CD2DD0E081E0C0
:1013E000B1DDC957DE4F8883D39480919101D8161F
:1013F000A0F380919201811152DD8091910180933F
:101400008F0113C0ECE1F0E13197F1F700C000006B
:10141000CFB7F894609189008AE890E070E040913D
:101420004A01D8D910928900CFBF109272008091E2
:101430008300882309F445CE80914E01882369F406
:101440008091840080934B018091850080934C01B2
:101450008091860080934D0117C090914B019817A1
:1014600010F4C09801C0C09A80914E0190914C0137
:10147000981710F4C19801C0C19A90914D01981726
:1014800010F4C29801C0C29A80914E018F5F809380
:101490004E0117CEE199FECF9FBB8EBBE09A9927F4
:1014A0008DB30895262FE199FECF1CBA9FBB8EBB4A
:1014B0002DBB0FB6F894E29AE19A0FBE01960895FB
:0414C000F894FFCFCE
:1014C4005AFF080335003100320020000A0A0000E8
:00000001FF
