:101800003BC06FC054C053C052C051C050C04FC045
:101810004EC04DC04CC04BC04AC049C048C047C074
:1018200046C045C044C0040309041C037700770088
:1018300077002E00660069007300630068006C008A
:101840002E00640065000E03550053004200610045
:101850007300700012011001FF000008C016DC05C3
:101860000201010200010902120001010080320997
:10187000040000000000000011241FBECFE5D4E0EA
:10188000DEBFCDBF10E0A0E6B0E0E4ECFFE102C0B7
:1018900005900D92A636B107D9F710E0A6E6B0E0A4
:1018A00001C01D92AD39B107E1F754D189C3A8CF6A
:1018B000A82FB92F80E090E041E050EA609530E039
:1018C00009C02D9182279795879510F08427952739
:1018D000305EC8F36F5FA8F30895EADF8D939D93A0
:1018E0000895CF93CFB7CF93C395B09BE9F7B09B43
:1018F00009C0B09B07C0B09B05C0B09B03C0B09BA4
:1019000001C0A1C0DF93C0918000DD27C957DF4F20
:10191000B09B02C0DF91EBCF2F930F931F9306B3C1
:101920002FEF00FB20F94F933F9316B34FEF0127A2
:1019300000FB21F93BE031C04E7F012F16B321603F
:1019400028C0102F4D7F2260000006B329C04B7FB6
:101950002460012F000016B32BC016B3477F286008
:101960002AC04F7E06B320612CC04F7D16B3206283
:101970002FC04F7B06B3206432C0422706B3499381
:101980004FEF0000102710FB20F916B31370C9F1B8
:10199000297F91F2012700FB21F906B3237F89F209
:1019A000315058F1102710FB22F916B3277E79F237
:1019B000012700FB23F92F7C81F206B3102710FBCF
:1019C00024F92F7971F200C016B3012700FB25F925
:1019D0002F7359F200C006B3102710FB26F92230EE
:1019E00040F200C016B3012700FB27F9243028F687
:1019F0004F77206816B30000F9CF10E41ABF002714
:101A000017C03B503195C31BD04010E41ABF08816A
:101A1000033CE9F00B34D9F020917E001981110FBD
:101A20001213EDCF093641F10D3211F0013E39F7B5
:101A3000009385003F914F911F910F912F91DF915E
:101A4000CAB7C6FD51CFCF91CFBFCF911895209186
:101A50008500222379F310918300112311F534308E
:101A600012F13093830020937F00109180003BE0BF
:101A7000311B3093800017C00091830001308CF43B
:101A80000AE53091600034FD10C000936000C3E7A8
:101A9000D0E00FC02795A8F45150A9F4220F000000
:101AA000F9CF4AE503C042ED01C0432FC4E1D0E0C5
:101AB00032E017B31360C09A17BB08B320E413E0F9
:101AC0005F93012756E008BB279520F4515021F47D
:101AD000220FF9CF012756E000003B5A08BBD0F295
:101AE000279528F4515029F4220F0000F9CF01273F
:101AF00056E0279508BB20F4515021F4220FF9CF6E
:101B0000012756E02991332308BB21F60C7F109161
:101B10008400110FC651D04008BB11F010937E0015
:101B200010E41ABF016017B31C7F402F4C7F5F91F8
:101B300000C000C008BB17BB48BB7CCF15BAF894E7
:101B40001BBE15BE81E08BBF1BBEE0917100F09102
:101B50007200099588E10FB6F89481BD11BC0FBEE3
:101B6000AA9A04B601FE16C214BE81E08BBF82E0C1
:101B70008BBF9A990FC285B7826085BF8BB780648F
:101B80008BBFB89A20E005C0A89588EB9BE0019731
:101B9000F1F72150C9F7B8987894CC24DD249091BE
:101BA0008300935097FD6DC1809180000CE010E0A0
:101BB000081B110909571F4F80917F008D3209F0D2
:101BC000DCC0983009F05BC183EC809373008AE538
:101BD0008093600010926A00D8013C91832F807638
:101BE00011962C911197882309F451C086E690E054
:101BF00090938200809381002330F9F413969C9196
:101C0000139714968C91149712962C91203339F4D3
:101C10008370E82FF0E0EE59FF4F80810AC0203A30
:101C200011F4B9D106C0203C19F4F8016581BBD18B
:101C300080E08093690024E092C0253011F421E017
:101C40008EC0822F84508630D8F4D80112968D91A0
:101C50009C91139790936D0080936C002930A9F0AC
:101C600016969C91169790936E0015968C918270A3
:101C700080936F002093700037FD6DC09FEF6BC0A5
:101C8000223019F481E080936B0020E068C0F801F5
:101C9000828110927C00222331F410927D008CE727
:101CA00090E022E053C0253019F4809384004BC0AB
:101CB0002630C9F5D80113968C91813019F484E54A
:101CC00098E104C0823041F486E698E19093820066
:101CD0008093810022E123C0833001F5F8018281E5
:101CE000882341F486E298E19093820080938100FA
:101CF00024E015C0813041F48AE298E1909382009B
:101D0000809381002CE10BC0823041F486E498E19D
:101D100090938200809381002EE001C020E080E457
:101D200080936A001CC0283019F486E890E009C04E
:101D3000293019F48093860006C02A3021F48CE7FC
:101D400090E021E003C08CE790E020E090938200D7
:101D50008093810004C080E880936A000BC0D801A2
:101D600017968C911797882321F416969C919217B9
:101D700008F0922F9093610082C080916A0087FFE3
:101D80007EC080916E00F92E891708F4F82E8F1905
:101D900080936E00EE24882311F4EE24E394809166
:101DA0007000873010F430E063C0E8010CC080910F
:101DB0006C0090916D00019690936D0080936C0083
:101DC00001976991F0D0FE01E01BEF1580F353C03D
:101DD00080916C0090916D008F739070892B69F4E5
:101DE000F894E0916C00F0916D0083E080935700CF
:101DF000E895789407B600FCFDCF3E5FF894E0913B
:101E00006C00F0916D00D8018D919C9121E00C0146
:101E100020935700E8951124789480916C0090915C
:101E20006D00029690936D0080936C008F7390709C
:101E3000892B41F0EE20D1F03F15C0F080916F006A
:101E40008823A1F0F894E0916C00F0916D00329736
:101E500085E080935700E895789407B600FCFDCFA5
:101E6000F89481E180935700E89578940E5F1F4FB6
:101E70003F1508F4ADCFEE2011F0109261001092E2
:101E800083008091600084FF71C0809161008F3F6A
:101E900009F46CC0182F893008F018E0811B80937A
:101EA00061008091730098E8892780937300112363
:101EB00009F44AC080916A0087FF2AC080916E00B1
:101EC000811708F4182F811B80936E000091700019
:101ED000C4E7D0E015C0E0916C00F0916D000730D0
:101EE00018F0CF0158D001C0849188832196809149
:101EF0006C0090916D00019690936D0080936C0042
:101F0000812F90E08C589F4FC817D90721F71AC02E
:101F1000E0918100F091820086FF09C0912FA4E733
:101F2000B0E084918D9331969150D9F707C0912FED
:101F3000A4E7B0E081918D939150E1F7F093820096
:101F4000E0938100193060F484E790E0612FC5DCF4
:101F5000612F6C5F6C3041F08FEF8093610004C0A3
:101F60008FEF809361006EE16093600094E186B32F
:101F7000837031F49150D9F71092840010927E0052
:101F800080916B00882321F0CA9411F4DA9411F047
:101F90009A9B05CED3DDE199FECF9FBB8EBBE09A25
:101FA00099278DB30895262FE199FECF9FBB8EBB55
:101FB0002DBB0FB6F894E29AE19A0FBE01960895F0
:041FC000F894FFCFC3
:061FC4005AFF1E93070006
:0400000300001800E1
:00000001FF
