:100000000EC01DC01CC01BC01AC019C018C017C02C
:1000100016C015C014C013C013C011C010C01124E5
:100020001FBECFE5D2E0DEBFCDBF10E0A0E6B0E05E
:1000300001C01D92A536B107E1F721D1DAC1E0CFA9
:100040001F920F920FB60F9211240F900FBE0F90B8
:100050001F90189510926400109263001092620035
:100060001092610010926000BC9AC4988FE99CE8DD
:100070000197F1F700C00000C49ABC9898E89A95DF
:10008000F1F7B49B02C080E0089548ED4A95F1F77E
:10009000B49BF9CFB499FECFE0E6F0E021E030E088
:1000A000108287E090E0B49BFECF40E54A95F1F7DF
:1000B000B49B09C06081A901082E01C0440F0A94B5
:1000C000EAF7642B6083B499FECF019760F731960D
:1000D00080E0E536F80721F781E008958FE599E0A3
:1000E0000197F1F700C0000008958FE193E00197B8
:1000F000F1F700C0000008958F929F92AF92BF92D7
:10010000CF92DF92EF92FF921F93CF93DF93BB9A30
:100110006B017C0120E3E22AE4E1F694E794D794B2
:10012000C794EA95D1F7960127703327C1E0D0E054
:1001300002C0CC0FDD1F2A95E2F78F7099271CE0D3
:10014000C12CD12C7601F3E08F2E912CA12CB12C57
:1001500052E0CC0CDD1CEE1CFF1C5A95D1F7A5011A
:10016000940125D1C62AD72AE82AF92AB901CA0159
:10017000115071F720E030E0D701C6011CE0AC015E
:10018000BD0143705527662777274130510561052A
:10019000710579F198F0423051056105710509F05A
:1001A00044C0C39AEFE1F3E03197F1F700C00000DB
:1001B000C398EFE5F9E03197F1F727C0C39AEFE173
:1001C000F3E03197F1F700C00000C398EFE5F9E0E4
:1001D0003197F1F700C00000C39AEFE1F3E03197E7
:1001E000F1F700C00000C398EFE5F9E03197F1F7AF
:1001F0001AC0C39AEFE5F9E03197F1F700C00000AB
:10020000C398EFE1F3E03197F1F700C00000C39A23
:10021000EFE5F9E03197F1F700C00000C398EFE196
:10022000F3E03197F1F700C0000042E0B695A795E2
:10023000979587954A95D1F7115009F0A0CFC39AA9
:100240008FE193E00197F1F700C00000C398EFED54
:10025000F0E63197F1F700C000002F5F3F4F2C17F9
:100260003D0708F489CFDF91CF911F91FF90EF9068
:10027000DF90CF90BF90AF909F908F90089588E1CE
:100280000FB6F89481BD11BC0FBEA89599E20FB6C8
:10029000F894A89581BD0FBE91BD7894B89A84B3A7
:1002A000837084BB17B883EA86B990E011E0A89503
:1002B00081B5806481BD911165C0C09A8FEF99EFBF
:1002C0000197F1F700C00000F894C4DE78946091C3
:1002D0006000309161009091620020916300832F53
:1002E000860F890F820F611106C0311104C0911170
:1002F00002C02223B1F040916400841312C070E068
:10030000762F6627630F711DC92FCF77D0E0DC2FC2
:10031000CC27C20FD11D97FF08C0D195C195D10937
:1003200004C060E070E0C0E0D0E06052714D88270A
:1003300077FD8095982FE0DE8FEF99EF0197F1F729
:1003400000C00000BE016451734D882777FD809581
:10035000982FD2DE8FEF99EF0197F1F700C00000E0
:1003600017B99AE19A95F1F700C0369A349BFECFFF
:10037000349A64B175B168537D4C80E090E0BCDE86
:10038000C09898E09150379885B7877E806185BF87
:1003900085B7806285BF85B7806285BF889585B740
:1003A0008F7D85BF85B78F7D85BF379A80CFA1E2CE
:1003B0001A2EAA1BBB1BFD010DC0AA1FBB1FEE1FDF
:1003C000FF1FA217B307E407F50720F0A21BB30B2A
:1003D000E40BF50B661F771F881F991F1A9469F7A6
:1003E00060957095809590959B01AC01BD01CF0102
:0603F0000895F894FFCF10
:00000001FF
