:1000000049C063C08FC061C060C05FC05EC05DC0DA
:100010005CC05BC05AC059C058C057C056C0090226
:1000200012000101008064090400000000000000CB
:1000300012011001FF000008030431C60102010291
:10004000030134036900320063002D00740069006D
:100050006E0079002D0075007300620020006F00B3
:100060006E002000440069006700690073007000A2
:10007000610072006B0016037A00660074006C0069
:10008000610062002E0063006F006D00040309042C
:100090000100FF8E11241FBECFE5D2E0DEBFCDBF31
:1000A00010E0A0E6B0E0E8E3FBE002C005900D92AE
:1000B000AE36B107D9F710E0AEE6B0E001C01D9250
:1000C000A23AB107E1F772D435C59ACFA82FB92F5C
:1000D00080E090E041E050EA609530E009C02D9169
:1000E00082279795879510F084279527305EC8F36F
:1000F0006F5FA8F30895EADF8D939D930895A6E0BE
:1001000088279927AA9569F00197E1F3B399FCCF65
:10011000B39BFECF81E09927A6B3019611F0A87199
:10012000D9F70895CF93CFB7CF93C395B39BE9F792
:10013000B39B0BC0B39B09C0B39B07C0B39B05C067
:10014000B39B03C0B39B01C0D3C00F92DF93C09198
:100150008500DD27C457DF4F012EB39B03C0DF911D
:100160000F90E6CF2F930F931F934F932FEF4F6F67
:1001700006B303FB20F95F933F9350E03BE065C07B
:1001800016B30126502953FDC89556B3012703FB2A
:1001900025F92F7306B3B1F05027102713FB26F96A
:1001A00006B22230F0F000C016B3012703FB27F996
:1001B0000126502906B22430E8F54F77206816B39F
:1001C0000000F6CF50274F7D206206B2102F0000AE
:1001D00000C006B300265029102713FB26F906B2EB
:1001E000E2CF4F7B06B3206400C0DACF012650294E
:1001F000187106B269F14E7F2160012F16B328C035
:10020000002650294D7F06B22260102F29C00126FA
:1002100050294B7F06B22460012F2DC016B3012652
:100220005029477F2860000006B22EC04F7E06B3DB
:10023000206130C0422706B3499300265029102779
:1002400006B24FEF13FB20F9297F16B379F218712C
:1002500059F10126502906B2012703FB21F9237F1A
:1002600006B371F2002650293150D0F006B21027A3
:1002700013FB22F9277E16B351F2012650290127DC
:1002800003FB06B223F92F7C49F2000006B31027C6
:1002900013FB24F90026502906B22F7939F270CFCA
:1002A00010E21ABF002717C03B503195C31BD04046
:1002B00010E21ABF0881033CF9F00B34E9F02091F9
:1002C00083001981110F1213EDCF093651F10D3250
:1002D00011F0013E39F700938A003F915F914F91F1
:1002E0001F910F912F91DF910F90CAB7C5FD1DCFC0
:1002F000CF91CFBFCF91189520918A00222369F327
:1003000010918800112321F5343022F130938800B8
:1003100020938400109185003BE0311B30938500D1
:1003200019C00091880001309CF40AE5309160000A
:1003300034FD11C000936000C8E7D0E010C005276D
:1003400010E000C021C0052710E0C89508BB14C00C
:100350003AE501C032ED032EC0E0D0E032E017B341
:100360001861C39A08B317BB58E120E84FEF20FF8C
:10037000052708BB279517951C3F28F70000455215
:10038000B0F720FF0527279508BB17951C3FB8F647
:1003900029913A9561F7077E10918900110F08BBEA
:1003A000C250D04011F01093830010E21ABF0860D1
:1003B00017B3177E402F477E54E05A95F1F708BBDC
:1003C00017BB48BB8ACFCF93DF93609188006350FF
:1003D00067FDB0C080918500CCE0D0E0C81BD1099A
:1003E000C457DF4F809184008D3209F092C068308D
:1003F00009F09EC083EC809378008AE580936000CA
:1004000010926E008881807619F0CE01F0D16EC016
:100410009A81109281008981811106C01092820018
:1004200021E830E082E05EC0853019F490938900C5
:100430004DC0863009F044C08B81813019F480E3CF
:1004400090E004C0823049F48EE190E09093870000
:100450008093860090E482E130C0833061F5911191
:1004600009C08CE890E0909387008093860090E428
:1004700084E023C0913049F486E790E090938700B0
:100480008093860090E486E118C0923049F482E4BB
:1004900090E0909387008093860090E484E30DC001
:1004A000933049F482E690E0909387008093860031
:1004B00090E088E002C090E480E090936E0016C067
:1004C000883069F0893029F490938B0021E830E07E
:1004D00004C021E830E08A3021F080E003C02BE83E
:1004E00030E081E030938700209386008F3F39F41D
:1004F000988197FD8E8190E890936E0007C09F8150
:10050000911104C09E81981708F4892F809361008F
:100510000FC080916E0087FF0BC0CE0129D18F3FA5
:1005200021F48EE18093600003C08111109261007C
:10053000109288008091600084FF56C08091610015
:100540008F3F09F451C0C82F893008F0C8E08C1BD8
:10055000809361008091780098E8892780937800E3
:10056000CC2389F180916E0087FF06C06C2F89E74C
:1005700090E0BBD0C82F25C04091860050918700E5
:1005800086FF0BC0FA01A9E7B0E08C2F8A0F949187
:100590009D9331968A13FBCF09C0DA01E9E7F0E0B9
:1005A0008C2F8E0F9D9191938E13FCCF2C2F215069
:1005B00030E02F5F3F4F240F351F3093870020938B
:1005C0008600C93058F46C2F89E790E094DDCC5F49
:1005D000CC3041F08FEF8093610004C08FEF8093A7
:1005E0006100CEE1C093600084E196B3987131F46C
:1005F0008150D9F71092890010928300C1E08111D7
:10060000C0E080916F008C1729F0C11101C08BD11F
:10061000C0936F00DF91CF910895AC9A8BB7806241
:100620008BBF0895E0916A00F0916B003197F1F76C
:10063000882321F0BA98B29BFECF01C0BA9A80916C
:100640006C0090916D000197F1F70895B8980895A6
:10065000B89A81E0E7DFFACF0F931F93CF93DF9330
:10066000C7E0D0E0082F10E0C8010C2E02C095951D
:1006700087950A94E2F780FF02C0E8DF01C0B89ACC
:1006800081E0D0DF80E0CEDF219770F7DFDF81E00F
:10069000C9DFC6B380E0C6DF8C2F80958170DF9103
:1006A000CF911F910F9108951F93CF93DF93182F30
:1006B000CDDF80E0B7DFD8E0C0E081E0B3DFCC0F72
:1006C000B099C16080E0AEDFD150B9F7112311F0CD
:1006D000BDDF01C0B89A81E0A5DF80E0A3DFB6DF0F
:1006E0008C2FDF91CF911F9108950F931F93CF937C
:1006F000DF93082F162F80917000813069F52091CB
:10070000710030917200E62FF0E02E173F0708F4D9
:10071000122F802FEC0110C02091710030917200D7
:1007200021503109309372002093710081E0232B16
:1007300009F080E0B9DF89938C2F801B811760F36B
:100740008091730081FF0EC0209171003091720082
:10075000232B41F47DDF06C0462F50E060E070E0BF
:10076000802FCBD1812FDF91CF911F910F910895D1
:100770000F931F93CF93DF93082F162F8091700054
:10078000813049F52091710030917200E62FF0E040
:100790002E173F0708F4122F802FEC010CC0209178
:1007A0007100309172002150310930937200209312
:1007B0007100899151DF8C2F801B811780F380910C
:1007C000730081FF0EC02091710030917200232BC5
:1007D00041F43EDF06C0462F50E060E070E0802F1D
:1007E0008CD1812FDF91CF911F910F9108951F938D
:1007F000CF93DF93EC0184E790E0909387008093A0
:10080000860089818230F9F030F4882359F08130F4
:1008100009F084C00FC0833009F47AC0883008F032
:100820007DC043C08A81809374008B818093750062
:1008300082E075C044E050E060E970E084E790E059
:1008400053D184E06CC06A817B8180E090E022E734
:1008500036E040E050E00DD1685A7D4F8F4F9F4FFA
:1008600020EB34E040E050E01DD12830310538F471
:1008700081E090E090936D0080936C0006C027505B
:10088000310930936D0020936C0080916C00909141
:100890006D0096958795009709F002C081E090E081
:1008A00090936B0080936A0039C0C19A1C81110F2C
:1008B0008A8180FD1160898180FD03C0C7DE81E0EF
:1008C000B1DEB89A80E0AEDE812FC6DE811108C0AD
:1008D00082E080937000109272001092710010C03C
:1008E00081E0809370008E819F819093720080934D
:1008F000710029812093730021FF03C0892B09F423
:10090000A7DEC1988E819F81892B41F08FEF07C0B0
:10091000809170008093740081E001C080E0DF91DD
:10092000CF911F910895DF92EF92FF920F931F9343
:10093000CF93DF9308E010E0F12C30E8E32EDE2CBB
:10094000DF0CD1BEDCDBEC01C43389E0D8070CF44A
:10095000FD2CE6940150110991F78F2D815081BF34
:100960000F2D10E00F5F1F4F10C0C9DB845399405B
:1009700097FF03C09195819591098C179D0714F4F9
:10098000F1B6EC0181B78F5F81BF81B790E00817A6
:1009900019075CF7F1BE61B780E090E0DF91CF917D
:1009A0001F910F91FF90EF90DF90B6C080E090E034
:1009B000ABD08F3F09F081BF80E290E0A5D0D82F67
:1009C00081E290E0A1D0C82F82E290E09DD0D05388
:1009D000DA3008F041C0C053CA3008F03DC080533F
:1009E0008A3008F039C080E290E08ED080936400B5
:1009F0001092650081E290E087D0809366001092AB
:100A0000670082E290E080D08093680010926900D5
:100A1000B898C098BA98C29810927200109271005B
:100A2000BB9A84E1E2EBF1EF3197F1F700C00000EF
:100A30008150C1F7BB982EE088E190E00FB6F894A2
:100A4000A89581BD0FBE21BDE8DD7894B99ABD9807
:100A5000C598A895B8DCFDCF61E380E290E05CD05A
:100A600061E381E290E058D063E382E290E054D009
:100A7000BACFFF27EE27BB27AA2760FF04C0A20F2B
:100A8000B31FE41FF51F220F331F441F551F9695F8
:100A900087957795679589F70097760771F7CF0166
:100AA000BD010895A1E21A2EAA1BBB1BFD010DC0BA
:100AB000AA1FBB1FEE1FFF1FA217B307E407F5070E
:100AC00020F0A21BB30BE40BF50B661F771F881FEA
:100AD000991F1A9469F760957095809590959B0180
:100AE000AC01BD01CF010895FB01DC0102C00590FE
:100AF0000D9241505040D8F70895DC0101C06D932C
:100B000041505040E0F70895E199FECF9FBB8EBB66
:100B1000E09A99278DB30895262FE199FECF1CBA4C
:100B20009FBB8EBB2DBB0FB6F894E29AE19A0FBE25
:080B300001960895F894FFCF2F
:0E0B38005AFF080335003100320003000600AA
:00000001FF
