:100000000EC01DC01CC01BC01AC019C018C017C02C
:1000100016C015C014C013C013C011C010C01124E5
:100020001FBECFE5D2E0DEBFCDBF10E0A0E6B0E05E
:1000300001C01D92A536B107E1F7D2D069C1E0CF6A
:100040001F920F920FB60F9211240F900FBE0F90B8
:100050001F90189510926400109263001092620035
:100060001092610010926000BC9AC4988FE99CE8DD
:100070000197F1F700C00000C49ABC9898E89A95DF
:10008000F1F7B49B02C080E0089548ED4A95F1F77E
:10009000B49BF9CFB499FECFE0E6F0E021E030E088
:1000A000108287E090E0B49BFECF40E54A95F1F7DF
:1000B000B49B09C06081A901082E01C0440F0A94B5
:1000C000EAF7642B6083B499FECF019760F731960D
:1000D00080E0E536F80721F781E008958F929F923E
:1000E000AF92BF92CF92DF92EF92FF920F931F9346
:1000F000BB9A8B019C012063E4E136952795179507
:100100000795EA95D1F798012770332741E050E031
:1001100002C0440F551F2A95E2F78B019C012F70F6
:100120003327E4E1812C912C540175016401CC0C3E
:10013000DD1CEE1CFF1C4801590181E08822992436
:10014000AA24BB248C289D28AE28BF283695279545
:1001500017950795E15049F7E0E0F0E0950184013B
:10016000A4E1C39A00FD0CC08FE193E00197F1F781
:1001700000C00000C3988FE599E00197F1F70BC02C
:100180008FE599E00197F1F700C00000C3988FE177
:1001900093E00197F1F700C0000036952795179579
:1001A0000795A150F1F6C39A8FE193E00197F1F71B
:1001B00000C00000C3988FED90E60197F1F700C0F2
:1001C00000003196E417F50748F21F910F91FF9058
:1001D000EF90DF90CF90BF90AF909F908F90089559
:1001E00088E10FB6F89481BD11BC0FBEA89599E2C5
:1001F0000FB6F894A89581BD0FBE91BD7894B89ABA
:1002000084B3837084BB17B883EA86B990E011E0A9
:10021000A89581B5806481BD911165C0C09A8FEFAA
:1002200099EF0197F1F700C00000F89413DF78947C
:1002300060916000309161009091620020916300B4
:10024000832F860F890F820F611106C0311104C000
:10025000911102C02223B1F040916400841312C0B6
:1002600070E0762F6627630F711DC92FCF77D0E01E
:10027000DC2FCC27C20FD11D97FF08C0D195C195A7
:10028000D10904C060E070E0C0E0D0E06052714D80
:10029000882777FD8095982F21DF8FEF99EF0197C1
:1002A000F1F700C00000BE016451734D882777FD4F
:1002B0008095982F13DF8FEF99EF0197F1F700C02A
:1002C000000017B99AE19A95F1F700C0369A349B6D
:1002D000FECF349A64B175B168537D4C80E090E0F4
:1002E000FDDEC09898E09150379885B7877E806191
:1002F00085BF85B7806285BF85B7806285BF8895D9
:1003000085B78F7D85BF85B78F7D85BF379A80CFB5
:04031000F894FFCF8F
:00000001FF
