:10000000DDC068C2F6C0F5C0F4C0F3C0F2C0F1C0F4
:10001000F0C0EFC0EEC0EDC0ECC0EBC0EAC0E9C07C
:10002000E8C0E7C0E6C0040309041A0354006900ED
:100030006C006C00200048006100720062006100EA
:1000400075006D001A036900320063002D00740012
:1000500069006E0079002D007500730062001201C6
:100060001001FF000008030431C605010102000170
:1000700009021200010100800509040000000000CF
:1000800000000100FF8E6932632D74696E792D7551
:100090007362202D20286329203230303620627987
:1000A0002054696C6C204861726261756D0A006E43
:1000B0006F7420696E2061636B2073746174650ACC
:1000C000007772697465206661696C65640A006412
:1000D000617461203D2025780A0065786365656458
:1000E00073210A007772697465202564206279742F
:1000F00065732C202564206578700A006E6F74206B
:10010000696E2061636B2073746174650A006461B9
:100110007461203D2025780A006578636565647305
:10012000210A007265616420256420627974657318
:100130002C202564206578700A00726571756573DE
:100140007420666F722064656C6179202564757314
:100150000A0053657475702025782025782025784D
:100160002025780A0049324320726561643A206193
:10017000646472657373206572726F72204020250B
:10018000780A006932632025732061742030782555
:100190003032782C206C656E203D2025640A0049A1
:1001A000324320646576696365206174206164640C
:1001B0007265737320307825780A000011241FBE01
:1001C000CFE5D4E0DEBFCDBF10E0A0E6B0E0E6EEC4
:1001D000F4E102C005900D92AA37B107D9F710E0FB
:1001E000AAE7B0E001C01D92A33BB107E1F7F0D34D
:1001F00078C906CF85B7836085BF8BB780648BBF16
:100200000895FF920F931F93CF93DF936091930014
:10021000662351F180919000CCE0D0E0C81BD10959
:10022000C956DF4F635080918F008D3279F08091F5
:100230007A0087FD11C0CE0102D48F3F09F494C02B
:10024000882309F48EC090E080E008C08AE580939E
:100250006100683009F4A7C090E880E090937A00CC
:1002600080936000109293008091610084FF26C00B
:10027000809160008F3F11F1182F8930A0F5811B0C
:100280008093600080917A0080FD35C02BE4F22ECF
:100290008F5F80937A0087FD35C0112309F054C029
:1002A00004E084E890E0612F86D2183019F08FEFD7
:1002B00080936000F0928300009361009AE086B31F
:1002C000837059F49150D9F71092940010928E00D7
:1002D0008FEF60E070E040E085D2DF91CF911F9119
:1002E0000F91FF90089518E0811B8093600080912A
:1002F0007A0080FFCBCF93ECF92E8F5F80937A004A
:1003000087FFCBCFC0919100D091920086FD32C083
:10031000112399F01150DE01E4E8F0E0412F50E0A4
:100320001F5F9A012B573F4F8D918193E217F3077F
:10033000D9F74F5F5F4FC40FD51FD0939200C09382
:100340009100012F0C5FADCF84E890E0612F29D49C
:10035000182F893008F4A4C08FEF809360000EE15D
:10036000A9CF90E08FEF7ACF8EE18093610090E08B
:100370008FEF74CF112309F311509E01A4E8B0E070
:10038000612F70E01F5FAB014B575F4FF901849104
:100390008D932F5F3F4FA417B507C1F76F5F7F4F56
:1003A000C60FD71FCACF8881807629F52CE830E0A8
:1003B00010928C008981882389F410928D003093EB
:1003C00092002093910090E822E08F81882321F40D
:1003D0008E81821708F442CF822F40CF8530B9F04A
:1003E0008630F1F0883031F18930A1F18A3059F14D
:1003F00090E820E0EACFCE017CD4282F8F3F09F08F
:100400004DC0888187FD09C08FEF90E027CF8A819A
:100410008093940090E820E0D8CF8E8190E01ECFAA
:100420008B81813031F18230D9F0833059F190ECF9
:1004300020E0CBCF86E990E09093920080939100EA
:1004400090E821E0C2CF309392002093910090E891
:1004500021E0BBCF8A818093960090E820E0B5CF61
:1004600080E790E0909392008093910090EC22E1DD
:10047000ACCF8EE590E0909392008093910090EC49
:1004800022E1A3CF8A81882371F486E290E09093E1
:1004900092008093910090EC24E097CF90E895CF64
:1004A000082F0C5FFECE813061F0823009F0BFCFA3
:1004B00084E490E0909392008093910090EC2AE184
:1004C00084CF8AE290E0909392008093910090EC28
:1004D0002AE17BCFCF93CFB7CF93B09BFECFB09B1A
:1004E00009C0B09B07C0B09B05C0B09B03C0B09BC8
:1004F00001C09EC0DF93C0919000DD27C956DF4F39
:10050000B09B02C0DF91EBCF2F930F931F9306B3E5
:100510002FEF00FB20F94F933F9316B34FEF0127C6
:1005200000FB21F93BE031C04E7F012F16B3216063
:1005300028C0102F4D7F2260000006B329C04B7FDA
:100540002460012F000016B32BC016B3477F28602C
:100550002AC04F7E06B320612CC04F7D16B32062A7
:100560002FC04F7B06B3206432C0422706B34993A5
:100570004FEF0000102710FB20F916B31370A9F1FC
:10058000297F91F2012700FB21F906B3237F89F22D
:100590003150F0F1102710FB22F916B3277E79F2C3
:1005A000012700FB23F92F7C81F206B3102710FBF3
:1005B00024F92F7971F200C016B3012700FB25F949
:1005C0002F7359F200C006B3102710FB26F9223012
:1005D00040F200C016B3012700FB27F9243028F6AB
:1005E0004F77206816B30000F9CF3B503195333078
:1005F00010E41ABFB8F0C31BD0400881033C41F19E
:100600000B3431F11981412F1F7720918E00121781
:1006100031F4093691F10D3279F0013E69F022276B
:10062000209395003F914F911F910F912F91DF9152
:10063000CF91CFBFCF911895009395003F914F91E7
:100640001F910F912F91DF91CAB7C6FD46CFF0CF12
:1006500000919500002331F310919300112349F587
:1006600034304AF13093930000938F001091900042
:100670003BE0311B309390001EC00091930001308D
:10068000C4F40AE53091610034FD17C000936100A5
:10069000C3E8D0E016C0052710E008BB1FC005273F
:1006A00022C0052727C005272CC0052710E008BB5E
:1006B00033C04AE503C042ED01C0432FC4E1D0E09E
:1006C00032E017B31360C09A08B317BB5F9353E0CF
:1006D00020E820FF052708BB279517951C3FD8F673
:1006E00020FF0527279508BB17951C3FC0F620FF64
:1006F00005272795179508BB1C3F98F620FF05276F
:10070000279517951C3F08BB70F600C0499120FF44
:10071000052708BB279517951C3F38F620FF0527AE
:10072000279508BB17951C3F38F520FF052727950F
:10073000179508BB1C3F10F520FF05272795179537
:100740001C3F08BBE8F4242F3A9519F60C7F5F9103
:1007500008BB00C010919400C651D04011F0109316
:100760008E0010E41ABF016017B31C7F402F4C7F2E
:1007700008BB17BB48BB56CF0527D3CF0527D8CF1B
:100780000527DDCFA82FB92F8FEF9FEF41E050EA6B
:10079000615070F02D9138E0722F782796958795EB
:1007A000269570FF02C0842795273A95A9F7F0CFC8
:1007B000809590950895E6DF8D939D930895982FE9
:1007C00092959F709A3008F0995D5D9BFECF905D89
:1007D0009CB98F708A3008F0895D5D9BFECF805D8B
:1007E0008CB90895FF920F931F93CF93DF93062F39
:1007F000F72E142FE4DF5D9BFECF8AE38CB9112323
:10080000A1F01150802F9F2DEC0180E2F82ECE0137
:10081000810F911D8C015D9BFECFFCB88881CFDFDD
:10082000C017D10711F02196F6CF5D9BFECF8DE06A
:100830008CB95D9BFECF8AE08CB9DF91CF911F917F
:100840000F91FF9008951F93182F8A3039F05D9B08
:10085000FECF1CB980E090E01F9108958DE0F3DF9A
:10086000F6CF882319F4BC9AC4980895BC98C49A0A
:100870000895E0917800F09179003197F1F788239D
:1008800059F0BD98C59AB59BFECF809176009091A6
:1008900077000197F1F70895BD9AC598F6CF81E0EA
:1008A000E8DF80E0E6DF089580E0DBDF80E0E1DF85
:1008B000089580E0D6DF81E0DCDF81E0D2DF0895BB
:1008C0000F931F93CF93DF93082F10E0C7E0D0E082
:1008D00008C081E0C6DFE3DF21978FEFCF3FD80765
:1008E00089F0C8010C2E02C0959587950A94E2F70D
:1008F00080FDEFCF80E0B5DFD2DF21978FEFCF3FD4
:10090000D80779F781E0ADDF81E0B3DF16B380E08F
:10091000B0DF12951F701095812F8170DF91CF91FC
:100920001F910F910895FF920F931F93F82E81E06E
:1009300098DF80E09EDF17E000E081E09ADF000FA3
:10094000B499016080E095DF1150B8F7FF2051F4B1
:1009500080E087DFA4DF81E084DF802F1F910F918B
:10096000FF90089581E07DDF9ADF81E07ADF802FBC
:100970001F910F91FF9008950F931F93CF93DF93D3
:10098000C0E0D0E00FE911E005C093DF2196CF373A
:10099000D105C9F089DF9E01220F822F91DF8823C4
:1009A000A1F300D000D0EDB7FEB712830183D4834A
:1009B000C383CFD20F900F900F900F907ADF2196C4
:1009C000CF37D10539F7DF91CF911F910F9108955E
:1009D0002EE088E190E00FB6F894A89581BD0FBE97
:1009E00021BD539A82E089B988E690E09093B000E7
:1009F0008093AF0000D086E890E0EDB7FEB7928319
:100A00008183A7D2BC98C49ABD98C59A10928100E0
:100A1000109280000F900F90AFDF88B38C7F88BB5F
:100A200087B3836087BB80E49CE90197F1F787B3C4
:100A30008C7F87BBDFDB7894A895E3DBFDCFDF926B
:100A4000EF92FF920F931F93CF93DF93D82E092F2E
:100A5000162F00D000D000D0EDB7FEB7319684EE4F
:100A600090E0ADB7BEB712969C938E9311976283B8
:100A7000138280918000909181009583848369D254
:100A8000EDB7FEB736960FB6F894FEBF0FBEEDBFBA
:100A900080917B00813009F054C0212F30E080919B
:100AA0008000909181008217930708F464C011239D
:100AB00009F475C08D2D902F9C01E90100E08FECA9
:100AC000E82E80E0F82E80918000909181000197BF
:100AD000909381008093800000D000D0EDB7FEB7E6
:100AE0003196ADB7BEB71296FC92EE9211978881FF
:100AF000828313822ED20F900F900F900F908991C6
:100B0000DFDE882309F401E0FE01ED19E117D8F2D8
:100B10008091820081FF06C08091800090918100C9
:100B2000892BD9F10023F1F000D081EC90E0ADB732
:100B3000BEB712969C938E9311970BD20F900F9085
:100B400011C000D08FEA90E0EDB7FEB792838183A9
:100B500000D20F900F908D2D902F60E070E0412F0C
:100B600050E0F0D1812FDF91CF911F910F91FF9035
:100B7000EF90DF90089500D08AED90E0ADB7BEB75A
:100B800012969C938E931197E4D1109180000F9050
:100B90000F90112309F08ECF02C08BDEC3CF00E08F
:100BA000B7CFEF92FF920F931F93CF93DF93082F4E
:100BB000F92E162F00D000D000D0EDB7FEB7319639
:100BC00083E291E0ADB7BEB712969C938E931197D6
:100BD0006283138280918000909181009583848349
:100BE000B8D1EDB7FEB736960FB6F894FEBF0FBE7C
:100BF000EDBF80917B00813009F04CC0212F30E0A7
:100C000080918000909181008217930708F45DC065
:100C1000112371F1802F9F2D9C01E9019EE0E92EA7
:100C200091E0F92E8091800090918100019790933E
:100C300081008093800020E0892B09F421E0822F3D
:100C400072DE899300D000D0EDB7FEB73196ADB714
:100C5000BEB71296FC92EE9211978283138279D1DD
:100C6000FE01E01B0F900F900F900F90E117D0F254
:100C70008091820081FF06C0809180009091810068
:100C8000892BA9F1812FDF91CF911F910F91FF90B7
:100C9000EF90089500D08CEF90E0ADB7BEB71296FC
:100CA0009C938E93119755D10F900F90802F9F2D6D
:100CB00060E070E0412F50E045D1812FDF91CF916E
:100CC0001F910F91FF90EF90089500D089E191E07E
:100CD000ADB7BEB712969C938E9311973AD11091EF
:100CE00080000F900F90112309F094CFC1CFE1DD68
:100CF000C9CF0F931F93CF93DF93EC010CE710E064
:100D000010939200009391002DB73EB72A503040C7
:100D10000FB6F8943EBF0FBE2DBFEDB7FEB73196AC
:100D200082E591E0ADB7BEB712969C938E93119772
:100D30008881828313828981848315828A81868354
:100D400017828B818087118604D1EDB7FEB73A9662
:100D50000FB6F894FEBF0FBEEDBF8981823009F453
:100D600079C0833008F44FC0833009F4A3C08830C1
:100D700008F05EC08A8180FDB1C022E630E0EDB7A8
:100D8000FEB738970FB6F894FEBF0FBEEDBF319691
:100D900083E891E0ADB7BEB712969C938E931197FE
:100DA000338322838C819D81958384838E819F816F
:100DB00097838683CED01C81110F8A81EDB7FEB751
:100DC00038960FB6F894FEBF0FBEEDBF80FD1160E0
:100DD000898180FF86C068DD812F72DD882309F458
:100DE00089C081E080937B002E813F813093810018
:100DF0002093800089818093820081FF17C0232B7C
:100E000091F08FEF16C08823C9F0813089F4C801B2
:100E100062E870E044E050E08CD084E0DF91CF9154
:100E20001F910F91089545DD2E813F81232B49F7B6
:100E300080E0DF91CF911F910F9108958A81809377
:100E40007C008B8180937D0082E0DF91CF911F91A8
:100E50000F9108952A813B8130937700209376008B
:100E60002115310589F581E090E09093770080931A
:100E7000760021E030E081E090E09093790080936B
:100E8000780000D000D08AE391E0ADB7BEB71296EB
:100E90009C938E93119714963C932E93139759D04D
:100EA00080E00F900F900F900F90DF91CF911F91E6
:100EB0000F91089580917B0080937C0081E0DF9109
:100EC000CF911F910F910895C901969587959093A1
:100ED000790080937800892BA1F6CDCF25E630E00C
:100EE0004ECF81E0BEDC81E0C4DC80E0BADC80E093
:100EF000C0DC72CF00D000D0EDB7FEB7319685E6EA
:100F000091E0ADB7BEB712969C938E931197128362
:100F100013821FD082E080937B0010928100109298
:100F200080000F900F900F900F90C3DC2E813F81B7
:100F30007DCFFB01DC0102C005900D924150504075
:100F4000D8F70895DC0101C06D9341505040E0F79F
:100F50000895A0E0B0E0EEEAF7E09CC2FE0135960D
:100F600061917191A091AF00B091B00013968C91F6
:100F70001397886013968C938091AF009091B00086
:100F8000AF010AD0E091AF00F091B0002381277F3C
:100F900023832096E2E09AC2ABE0B0E0E1EDF7E017
:100FA00069C23C012B015A01FC0117821682838120
:100FB00081FD03C06FEF7FEFB9C19AE0892E1E015A
:100FC0000894211C311CF3012381F20123FD85913A
:100FD00023FF81912F01882309F4A5C1853239F4BB
:100FE00023FD859123FF81912F01853221F490E02B
:100FF000B301B6D1E8CF982FFF24EE249924FFE166
:10100000FF15D0F09B3269F09C3228F4903259F0F1
:10101000933291F40EC09D3249F0903369F441E06F
:1010200024C052E0F52A84E0F82A28C098E0F92A82
:1010300025C0E0E1FE2A22C0F7FC29C0892F805399
:101040008A3070F4F6FE05C0989C902C1124980EFE
:1010500015C0E89CE02C1124E80EF0E2FF2A0EC037
:101060009E3229F4F6FC5FC140E4F42A07C09C36A6
:1010700019F450E8F52A02C0983649F4F20123FD2C
:10108000959123FF91912F01992309F0B8CF892FD2
:101090008554833018F08052833038F444E050E0B7
:1010A000A40EB51E5FE359830FC0933631F093371A
:1010B00079F0933509F052C01FC0F5018081898312
:1010C00042E050E0A40EB51E610101E010E011C045
:1010D000F501C080D180F6FC03C06FEF7FEF02C046
:1010E000692D70E042E050E0A40EB51EC6012DD17E
:1010F0008C015FE7F52213C0F501C080D180F6FCBA
:1011000003C06FEF7FEF02C0692D70E042E050E056
:10111000A40EB51EC6010ED18C0150E8F52AF3FECF
:1011200006C018C080E290E0B3011AD1EA948E2D77
:1011300090E008171907B0F30DC0F601F7FC859190
:10114000F7FE81916F0190E0B3010AD1E110EA94BA
:10115000015010400115110581F7E2C0943611F0DD
:10116000993661F5F7FE08C0F50120813181428191
:10117000538184E090E00AC0F501808191819C0157
:10118000442737FD4095542F82E090E0A80EB91E09
:101190009FE6F92257FF09C050954095309521955B
:1011A0003F4F4F4F5F4FE0E8FE2ACA01B901A1014E
:1011B0002AE030E001D1D82ED2183FC0953729F46B
:1011C0001F2D1F7E2AE030E01DC01F2D197F9F3686
:1011D00061F0903720F4983509F0A5C00FC0903722
:1011E00039F0983709F09FC004C028E030E00AC009
:1011F000106114FD146020E130E004C014FD16609D
:1012000020E132E017FF08C0F50160817181828121
:10121000938144E050E008C0F50180819181BC01D8
:1012200080E090E042E050E0A40EB51EA101C4D0E1
:10123000D82ED2188FE7F82EF122F6FE0BC05EEF03
:10124000F522D91438F4F4FE07C0F2FC05C08FEE85
:10125000F82202C01D2D01C0192DF4FE0DC0FE01A3
:10126000ED0DF11D8081803319F499EEF92208C04B
:101270001F5FF2FE05C003C08F2D867809F01F5F47
:101280000F2DF3FC13C0F0FE0EC01E1510F09D2CA8
:101290000AC09D2C9E0C911A1E2D05C080E290E084
:1012A000B3015ED01F5F1E15C8F304C01E1510F4F5
:1012B000E11A01C0EE2404FF0EC080E390E0B30108
:1012C0004FD002FF1BC001FD03C088E790E00EC0B5
:1012D00088E590E00BC0802F867881F001FF02C086
:1012E0008BE201C080E2F7FC8DE290E0B30138D0E0
:1012F00005C080E390E0B30133D09A94D914C8F3C9
:10130000DA94F101ED0DF11D808190E0B30128D058
:10131000DD20B1F705C080E290E0B30121D0EA946E
:10132000EE20C9F750CEF30166817781CB012B9671
:10133000E2E1BCC0FC010590615070400110D8F79B
:10134000809590958E0F9F1F0895FC01615070400D
:1013500001900110D8F7809590958E0F9F1F0895EA
:101360000F931F93CF93DF938C01EB018B8181FF50
:101370001BC082FF0DC02E813F818C819D8128176B
:10138000390764F4E881F9810193F983E88306C0A1
:10139000E885F985802F0995892B31F48E819F810D
:1013A00001969F838E8302C00FEF1FEFC801DF916C
:1013B000CF911F910F910895FA01AA27283051F17A
:1013C000203181F1E8946F936E7F6E5F7F4F8F4F76
:1013D0009F4FAF4FB1E03ED0B4E03CD0670F781FD5
:1013E000891F9A1FA11D680F791F8A1F911DA11DBA
:1013F0006A0F711D811D911DA11D20D009F46894F3
:101400003F912AE0269F11243019305D3193DEF69A
:10141000CF010895462F4770405D4193B3E00FD050
:10142000C9F7F6CF462F4F70405D4A3318F0495D3B
:1014300031FD4052419302D0A9F7EACFB4E0A6951E
:101440009795879577956795BA95C9F70097610540
:10145000710508959B01AC010A2E06945795479596
:1014600037952795BA95C9F7620F731F841F951F8B
:10147000A01D08952F923F924F925F926F927F929C
:101480008F929F92AF92BF92CF92DF92EF92FF9294
:101490000F931F93CF93DF93CDB7DEB7CA1BDB0B40
:1014A0000FB6F894DEBF0FBECDBF09942A883988E5
:1014B00048885F846E847D848C849B84AA84B984EC
:1014C000C884DF80EE80FD800C811B81AA81B981F8
:1014D000CE0FD11D0FB6F894DEBF0FBECDBFED010C
:0614E0000895F894FFCF0F
:1014E600FF5A7772007264000000000200000000DC
:0A14F6002304000000000A000500B6
:00000001FF
