:100000003DC065C156C055C054C053C052C051C058
:1000100050C04FC04EC04DC04CC04BC04AC049C07C
:1000200048C047C046C0040309041E0368006F00AF
:100030006D00650073002D0073006D00610072009B
:1000400074002E00720075001003750073006200CA
:100050002D0073007000690012011001FF000008FC
:10006000C016DC05000101020001090212000101B5
:1000700000803209040000000000000011241FBEAF
:10008000CFE5D4E0DEBFCDBF10E0A0E6B0E0EAE807
:10009000F6E002C005900D92A236B107D9F710E044
:1000A000A2E6B0E001C01D92AD3AB107E1F7C2D2BD
:1000B000EAC2A6CF85B7826085BF8BB780648BBF4D
:1000C00008951F93CF93DF9390919300935097FDE2
:1000D0008AC02091900080918F008D3209F081C0FC
:1000E000983009F07EC0CCE0D0E0C21BD109C956DF
:1000F000DF4F83EC809383008AE580936000109249
:1001000062008881807621F0CE010ED2282F60C057
:100110009A8110928C008981882331F410928D008D
:100120008CE890E022E050C0853019F49093940060
:1001300048C08630B1F58B81813019F488E590E0B4
:1001400004C0823041F48AE690E09093920080935C
:10015000910022E122C08330F9F48A81882341F49E
:1001600086E290E0909392008093910024E015C085
:10017000813041F48AE290E0909392008093910064
:100180002EE10BC0823041F488E490E0909392001D
:100190008093910020E101C020E080E48093620020
:1001A00017C0883019F486E990E009C0893019F445
:1001B0009093960006C08A3021F48CE890E021E00C
:1001C00003C08CE890E020E090939200809391002F
:1001D0008F81882321F48E81821708F4282F2093A1
:1001E0006100109293008091600084FF49C080916B
:1001F00061008F3F09F444C0182F893008F018E0DF
:10020000811B809361008091830098E88927809307
:100210008300112341F1209191003091920080914F
:10022000620086FF0DC0A4E8B0E080E090E0F90134
:10023000E80FF91FE491ED9301961817C1F708C074
:10024000912FD901E4E8F0E08D9181939150E1F78D
:100250001150812F90E01F5F0196820F931F9093A2
:1002600092008093910084E890E0612F2CD0612F60
:100270006C5F6C3019F08FEF8093610060936000C9
:1002800094E186B3837031F49150D9F710929400C1
:1002900010928E00DF91CF911F910895A82FB92F52
:1002A00080E090E041E050EA609530E009C02D9197
:1002B00082279795879510F084279527305EC8F39D
:1002C0006F5FA8F30895EADF8D939D930895CF9310
:1002D000CFB7CF93C395B09BE9F7B09B09C0B09B54
:1002E00007C0B09B05C0B09B03C0B09B01C0A1C0BC
:1002F000DF93C0919000DD27C956DF4FB09B02C04D
:10030000DF91EBCF2F930F931F9306B32FEF00FBDB
:1003100020F94F933F9316B34FEF012700FB21F9CC
:100320003BE031C04E7F012F16B3216028C0102F53
:100330004D7F2260000006B329C04B7F2460012F4F
:10034000000016B32BC016B3477F28602AC04F7E2B
:1003500006B320612CC04F7D16B320622FC04F7BA7
:1003600006B3206432C0422706B349934FEF000022
:10037000102710FB20F916B31370C9F1297F91F2F1
:10038000012700FB21F906B3237F89F2315058F190
:10039000102710FB22F916B3277E79F2012700FB04
:1003A00023F92F7C81F206B3102710FB24F92F7953
:1003B00071F200C016B3012700FB25F92F7359F223
:1003C00000C006B3102710FB26F9223040F200C00F
:1003D00016B3012700FB27F9243028F64F77206851
:1003E00016B30000F9CF10E41ABF002717C03B5026
:1003F0003195C31BD04010E41ABF0881033CE9F0DB
:100400000B34D9F020918E001981110F1213EDCF0A
:10041000093641F10D3211F0013E39F70093950094
:100420003F914F911F910F912F91DF91CAB7C6FD58
:1004300051CFCF91CFBFCF91189520919500222316
:1004400079F310919300112311F5343012F13093A8
:10045000930020938F00109190003BE0311B30936C
:10046000900017C00091930001308CF40AE53091A0
:10047000600034FD10C000936000C3E8D0E00FC0FE
:100480002795A8F45150A9F4220F0000F9CF4AE5AE
:1004900003C042ED01C0432FC4E1D0E032E017B306
:1004A0001360C09A17BB08B320E413E05F930127E1
:1004B00056E008BB279520F4515021F4220FF9CFC4
:1004C000012756E000003B5A08BBD0F2279528F4DC
:1004D000515029F4220F0000F9CF012756E027954B
:1004E00008BB20F4515021F4220FF9CF012756E028
:1004F0002991332308BB21F60C7F10919400110F32
:10050000C651D04008BB11F010938E0010E41ABF02
:10051000016017B31C7F402F4C7F5F9100C000C06B
:1005200008BB17BB48BB7CCFFC0181818823A1F4A9
:1005300082818093630083818093640084818093AF
:10054000650085818093660083E690E09093920039
:100550008093910084E00895823041F482818FB9C4
:10056000779BFECF8FB18093630016C0833031F448
:10057000C29882818FB9779BFECF4BC08430A1F4A3
:10058000C29882818FB9779BFECF8FB9779BFECFC0
:100590008FB180936300C29A83E690E090939200BB
:1005A0008093910081E00895833391F4E3E6F0E0D5
:1005B0001FB8779BFECF8FB1819380E0E338F807B7
:1005C000B9F7B097F0939200E093910080E208951C
:1005D000843389F482818FB9779BFECF83818FB971
:1005E000779BFECF84818FB9779BFECF85818FB9B2
:1005F000779BFECF1DC08B3011F4919A17C08A30C3
:1006000011F4919813C0853111F4C2980FC0843150
:1006100011F4C29A0BC0883219F417BA18BA06C07E
:10062000893231F48CE287BB8CE388BB80E008958B
:1006300080E008952EE088E190E00FB6F894A89548
:1006400081BD0FBE21BD36DDB89A20E048EB5BE0EE
:1006500004C0A895CA010197F1F72150D1F7B898C5
:10066000A09AA19AA89AA99A889A899A78948CE2D1
:1006700087BB8CE388BB82E58DB91EB8A99AA89583
:0A06800020DDA998FBCFF894FFCF0E
:02068A005AFF15
:00000001FF
