:1000000046C06EC15FC05EC05DC05CC05BC05AC010
:1000100059C0A4C257C056C055C054C053C052C0E6
:1000200051C050C04FC0040309041E0368006F0094
:100030006D00650073002D0073006D00610072009B
:1000400074002E00720075001003750073006200CA
:100050002D006E007200660012011001FF00000802
:10006000C016DC05000101020001090212000101B5
:100070000080320904000000000000000A0B0C0D93
:100080000E0F11121314151600010203040511249A
:100090001FBECFE5D4E0DEBFCDBF10E0A0E6B0E0EC
:1000A000ECE2F1E102C005900D92A636B107D9F756
:1000B00013E0A6E6B0E001C01D92AC3FB107E1F746
:1000C0000BD632C89DCF85B7826085BF8BB7806461
:1000D0008BBF08951F93CF93DF9390918E00935021
:1000E00097FD8AC020918B0080918A008D3209F0A3
:1000F00081C0983009F07EC0CCE0D0E0C21BD109AD
:10010000CE56DF4F83EC80937E008AE580936000BB
:10011000109266008881807621F0CE01B7D6282F14
:1001200060C09A81109287008981882331F41092EF
:10013000880087E890E022E050C0853019F4909361
:100140008F0048C08630B1F58B81813019F488E585
:1001500090E004C0823041F48AE690E090938D00F4
:1001600080938C0022E122C08330F9F48A818823B5
:1001700041F486E290E090938D0080938C0024E01F
:1001800015C0813041F48AE290E090938D00809315
:100190008C002EE10BC0823041F488E490E0909313
:1001A0008D0080938C0020E101C020E080E48093EA
:1001B000660017C0883019F481E990E009C08930E1
:1001C00019F49093910006C08A3021F487E890E0FA
:1001D00021E003C087E890E020E090938D008093B9
:1001E0008C008F81882321F48E81821708F4282FB8
:1001F0002093610010928E008091600084FF49C0BE
:10020000809161008F3F09F444C0182F893008F0B5
:1002100018E0811B8093610080917E0098E8892717
:1002200080937E00112341F120918C0030918D004C
:100230008091660086FF0DC0AFE7B0E080E090E0FF
:10024000F901E80FF91FE491ED9301961817C1F732
:1002500008C0912FD901EFE7F0E08D918193915083
:10026000E1F71150812F90E01F5F0196820F931FDD
:1002700090938D0080938C008FE790E0612F2CD0BD
:10028000612F6C5F6C3019F08FEF80936100609389
:10029000600094E186B3837031F49150D9F71092E5
:1002A0008F0010928900DF91CF911F910895A82FA0
:1002B000B92F80E090E041E050EA609530E009C05D
:1002C0002D9182279795879510F084279527305E8A
:1002D000C8F36F5FA8F30895EADF8D939D930895A7
:1002E000CF93CFB7CF93C395B09BE9F7B09B09C02D
:1002F000B09B07C0B09B05C0B09B03C0B09B01C0C2
:10030000A1C0DF93C0918B00DD27CE56DF4FB09B9D
:1003100002C0DF91EBCF2F930F931F9306B32FEF04
:1003200000FB20F94F933F9316B34FEF012700FBDB
:1003300021F93BE031C04E7F012F16B3216028C068
:10034000102F4D7F2260000006B329C04B7F246030
:10035000012F000016B32BC016B3477F28602AC0B8
:100360004F7E06B320612CC04F7D16B320622FC094
:100370004F7B06B3206432C0422706B349934FEF48
:100380000000102710FB20F916B31370C9F1297F64
:1003900091F2012700FB21F906B3237F89F2315046
:1003A00058F1102710FB22F916B3277E79F20127A6
:1003B00000FB23F92F7C81F206B3102710FB24F9F0
:1003C0002F7971F200C016B3012700FB25F92F73B6
:1003D00059F200C006B3102710FB26F9223040F274
:1003E00000C016B3012700FB27F9243028F64F7709
:1003F000206816B30000F9CF10E41ABF002717C019
:100400003B503195C31BD04010E41ABF0881033C18
:10041000E9F00B34D9F0209189001981110F1213E2
:10042000EDCF093641F10D3211F0013E39F700935D
:1004300090003F914F911F910F912F91DF91CAB77B
:10044000C6FD51CFCF91CFBFCF911895209190008D
:10045000222379F310918E00112311F5343012F11B
:1004600030938E0020938A0010918B003BE0311B6B
:1004700030938B0017C000918E0001308CF40AE598
:100480003091600034FD10C000936000CEE7D0E0F2
:100490000FC02795A8F45150A9F4220F0000F9CFFE
:1004A0004AE503C042ED01C0432FC4E1D0E032E091
:1004B00017B31360C09A17BB08B320E413E05F932F
:1004C000012756E008BB279520F4515021F4220F54
:1004D000F9CF012756E000003B5A08BBD0F2279520
:1004E00028F4515029F4220F0000F9CF012756E0DB
:1004F000279508BB20F4515021F4220FF9CF012792
:1005000056E02991332308BB21F60C7F10918F0010
:10051000110FC651D04008BB11F01093890010E4B0
:100520001ABF016017B31C7F402F4C7F5F9100C042
:1005300000C008BB17BB48BB7CCF8CE287BB8CE3F9
:1005400088BB80E58DB91EB808958FB9779BFECF23
:1005500008958FB9779BFECF8FB108951F920F92A8
:100560000FB60F9211242F933F938F939F93AF93C6
:10057000BF9380916B0090916C00A0916D00B09141
:100580006E0030917D000196A11DB11D232F235DCA
:100590002D3720F02D570196A11DB11D20937D0010
:1005A00080936B0090936C00A0936D00B0936E00ED
:1005B0008091670090916800A0916900B0916A00F5
:1005C0000196A11DB11D8093670090936800A093D0
:1005D0006900B0936A00BF91AF919F918F913F9155
:1005E0002F910F900FBE0F901F9018958FB7F89412
:1005F00020916B0030916C0040916D0050916E0025
:100600008FBFB901CA01089591988F7180628FB927
:10061000779BFECF8FB16FB9779BFECF919A0895EC
:1006200091988F718FB9779BFECF8FEF8FB9779BA2
:10063000FECF8FB1919A0895982F919884E28FB947
:10064000779BFECF8FB16F709295907F962B9FB95D
:10065000779BFECF919A0895FB0191988F718062EC
:100660008FB9779BFECF9FB106C080818FB9779BF2
:10067000FECF319641504423C1F7919A892F0895B6
:100680009C01613208F060E2919880EA8FB9779B13
:10069000FECFF9012FB1962F06C080818FB9779BCD
:1006A000FECF319691509923C1F780E2861B04C09A
:1006B0001FB8779BFECF81508823D1F7919A822F64
:1006C0000895FF920F931F93DF93CF93CDB7DEB7BB
:1006D00028970FB6F894DEBF0FBECDBFF82E098362
:1006E0001A832B833C834D835E836F83788786E0F8
:1006F0008F1508F445C0EF2DF0E0BE016F5F7F4F0E
:1007000081E08F1528F0E458FF4F849145E004C044
:10071000E458FF4F849141E09FDF2F2D30E0F90135
:10072000EE57FF4FE4919198EF71E062EFB9779B3C
:10073000FECF8FB180E28FB9779BFECF919A9198CF
:1007400082E08FB9779BFECF8FEF8FB9779BFECF7B
:100750004FB1919A28573F4FF9012491919882E225
:100760008FB9779BFECF8FB181E090E002C0880FF8
:10077000991F2A95E2F7482B4FB9779BFECF919AA4
:1007800028960FB6F894DEBF0FBECDBFCF91DF9194
:100790001F910F91FF9008950F931F93DF93CF93B5
:1007A000CDB7DEB728970FB6F894DEBF0FBECDBF2A
:1007B00029833A834B835C836D837E838F83988701
:1007C0008E010F5F1F4F8AE0B80145E045DF80E1F1
:1007D000B80145E041DF919881E38FB9779BFECF67
:1007E0008FB180E28FB9779BFECF919A28960FB692
:1007F000F894DEBF0FBECDBFCF91DF911F910F9157
:100800000895982F919886E08FB9779BFECF8FEF50
:100810008FB9779BFECF2FB1919A919886E28FB9CD
:10082000779BFECF8FB1892F90E083709070880FF7
:10083000991F297F282B2FB9779BFECF919A089576
:10084000282F919886E08FB9779BFECF8FEF8FB9D5
:10085000779BFECF9FB1919A977D213011F49062E2
:1008600003C0233009F49860919886E28FB9779B92
:10087000FECF8FB19FB9779BFECF919A80E090E039
:100880000895919882EE8FB9779BFECF8FB1919AA0
:100890000895919881EE8FB9779BFECF8FB1919A91
:1008A0000895982F919885E28FB9779BFECF8FB1ED
:1008B000892F903808F08FE78FB9779BFECF919AF8
:1008C0000895282F91981FB8779BFECF8FEF8FB98F
:1008D000779BFECF9FB1919A937F213011F498605E
:1008E00003C0223009F49C60919880E28FB9779B15
:1008F000FECF8FB19FB9779BFECF919A08959198C3
:100900001FB8779BFECF8FEF8FB9779BFECF9FB13C
:10091000919A919880E28FB9779BFECF8FB19D7F9E
:100920009FB9779BFECF919A089591981FB8779BB6
:10093000FECF8FEF8FB9779BFECF9FB1919A9198A1
:1009400080E28FB9779BFECF8FB192609FB9779B82
:10095000FECF919A08951F93889A899A8CE287BB5B
:100960001CE318BB80E58DB91EB89098919A88E970
:100970009AE30197F1F783E044DF82E061DF82E0F0
:10098000A0DF91981FB9779BFECF8FB11FB8779BDF
:10099000FECF919A919887E28FB9779BFECF8FB166
:1009A00080E78FB9779BFECF919A919885E28FB9B6
:1009B000779BFECF8FB189E18FB9779BFECF919A5C
:1009C000919884E28FB9779BFECF8FB18FEF8FB96B
:1009D000779BFECF919A919882EE8FB9779BFECF4D
:1009E0008FB1919A919881EE8FB9779BFECF8FB19D
:1009F000919A1F91089591981FB8779BFECF8FEF22
:100A00008FB9779BFECF9FB1919A919880E28FB971
:100A1000779BFECF8FB193609FB9779BFECF919A62
:100A2000919887E28FB9779BFECF8FB180E78FB91E
:100A3000779BFECF919A919882EE8FB9779BFECFEC
:100A40008FB1919A919881EE8FB9779BFECF8FB13C
:100A5000919A909A86E891E00197F1F7089588239A
:100A600059F0919881E28FB9779BFECF8FB18FE3D8
:100A70008FB9779BFECF09C0919881E28FB9779BA0
:100A8000FECF8FB11FB8779BFECF919A0895FC01DE
:100A900091988FEF8FB9779BFECF9FB1919A292FB5
:100AA000207496FF1EC0309721F0892F869587709D
:100AB0008083919887E28FB9779BFECF8FB180E4D6
:100AC0008FB9779BFECF919A95FF0BC0919887E2E3
:100AD0008FB9779BFECF8FB180E28FB9779BFECF26
:100AE000919A822F90E008959C01613208F060E2B3
:100AF000919881E68FB9779BFECFF9018FB1962F40
:100B00002FEF06C02FB9779BFECF8FB18193915005
:100B10009923C1F780E2861B9FEF04C09FB9779BA2
:100B2000FECF81508823D1F7919A919887E18FB9B0
:100B3000779BFECF8FEF8FB9779BFECF8FB1919AC6
:100B4000817008959098919881EE8FB9779BFECF30
:100B50008FB1919A919882EE8FB9779BFECF8FB12A
:100B6000919A0895E091FA03F091FB0320E030E0C0
:100B700008C0808191810296280F391F0280F3817D
:100B8000E02D3097B1F7C9010895DF93CF9300D0DE
:100B9000CDB7DEB72091C8003091C900CE010196D3
:100BA0002115310529F4885F93409A83898318C001
:100BB000AC01421B530BE091FA03F091FB0320E0E0
:100BC00030E008C0808191810296280F391F028091
:100BD000F381E02D3097B1F7240F351F3A83298335
:100BE00089819A810F900F90CF91DF910895BF92E4
:100BF000CF92DF92EF92FF920F931F93AC019198E7
:100C00001FB8779BFECF8FEF8FB9779BFECF2FB1A9
:100C1000919A919880E28FB9779BFECF8FB12C7F0C
:100C200022602FB9779BFECF919AE2ECF1E03197E9
:100C3000F1F7CA0125DD909A8CE38A95F1F7909837
:100C40008FB7F894C0906B00D0906C00E0906D006E
:100C5000F0906E008FBF48E0B42E0FEF9198BFB8B0
:100C6000779BFECF1FB10FB9779BFECF8FB1919AC3
:100C700031DA1073A1F42FB7F89480916B00909142
:100C80006C00A0916D00B0916E002FBF8C199D0972
:100C9000AE09BF09845F9140A040B040F8F291983E
:100CA00087E28FB9779BFECF1FB180E78FB9779B23
:100CB000FECF919A24DE919881EE8FB9779BFECF7B
:100CC0008FB1919A812F80721F910F91FF90EF90B9
:100CD000DF90CF90BF900895DF93CF930F92CDB761
:100CE000DEB72EE088E190E00FB6F894A89581BDBC
:100CF0000FBE21BDE8D9B89A20E048EB5BE004C004
:100D0000A895CA010197F1F72150D1F7B898A09A98
:100D1000A19AA89AA99A83E083BF12BE81E089BFF5
:100D20001ADE81E090E0EBD18BDD80E090E0E7D14E
:100D3000982F8F3F71F0919885E28FB9779BFECF06
:100D40008FB1892F903808F08FE78FB9779BFECF4E
:100D5000919A83E090E0D3D1811181E080DE82E03E
:100D600090E0CDD1809364008F3F19F481E08093AF
:100D7000640021EE30EF40EF50EF60EF70E080E074
:100D800090E00ADD81E002ED10EF20EF30EF40EF60
:100D900050E060E070E095DCEAECF0E081E0808318
:100DA00035968F5F8731D9F726DE78945E010894F7
:100DB000A11CB11C65E0C62E8FB7F894E0906B00C3
:100DC000F0906C0000916D0010916E008FBFA8959F
:100DD00080916F0090917000A0917100B0917200AD
:100DE000A8019701281B390B4A0B5B0B29303105F1
:100DF0004105510528F480917300813009F044C009
:100E000010927300A9981982C50141DE892B99F1CE
:100E1000A89888EA90E060E267DED82EA8EAB0E001
:100E20008091A800E82FF0E055E0EE0FFF1F5A95E3
:100E3000E1F7E85CFE4F8D91819330E0A83CB30769
:100E4000D1F7A89A47D9DD2019F37CDE8091740090
:100E50008C9DC001112486539F4F65E0C8DECBDD19
:100E6000809174008F5F8093740090916400981754
:100E700010F410927400E0926F00F09270000093F2
:100E8000710010937200A99A25D996CF0F931F93E2
:100E9000DF93CF9300D0CDB7DEB78C01DC01119684
:100EA0004C9111974423D9F412968C911297809308
:100EB000750013968C9113978093760014968C91FD
:100EC00014978093770015968C918093780085E72E
:100ED00090E090938D0080938C0084E009C1509144
:100EE0006400541778F0842F90E0E5E0880F991F94
:100EF000EA95E1F7885C9E4F90938D0080938C007B
:100F000080E2F6C0433308F445C0242F30E0852F3B
:100F100090E0C2968217930714F1842F8353809335
:100F2000740090E0FC01EE0FFF1FEE0FFF1FE80FB3
:100F3000F91FE653FF4FD80112968C9112978183C7
:100F400013968C911397828314968C9114978383B4
:100F500015968C91848381E080937300C9C04E36CE
:100F6000C9F4F80162816F3F21F480E090E0C7D0BE
:100F7000A4C0919885E28FB9779BFECF8FB1862F61
:100F8000603808F08FE78FB9779BFECF919A80E0A9
:100F900090E0A2C04F3679F4D80112968C918F3F21
:100FA00021F481E090E0ABD088C04ADC81E090E0A1
:100FB000F801628191C04037A1F4D80112966C917A
:100FC0006F3F19F4509375007AC0609364006731E5
:100FD00030F482E090E09BD0809164006EC082E3A8
:100FE0006CC04237E9F52091C8003091C900CE01AC
:100FF00001962115310529F4885F93409A838983EE
:1010000018C0AC01421B530BE091FA03F091FB03B3
:1010100020E030E008C0808191810296280F391FBE
:101020000280F381E02D3097B1F7240F351F3A830A
:10103000298389819A81809375009093760080E25C
:101040008093770086E1809378008AE0809379002E
:1010500085E790E090938D0080938C0085E048C0F8
:10106000433771F49198F80182818F718FB9779B22
:10107000FECF8FEF8FB9779BFECF8FB1919A1DC0B6
:10108000443791F4D80113969C9113979198129636
:101090008C918F7180628FB9779BFECF8FB19FB992
:1010A000779BFECF919A23C04537C1F4F801828126
:1010B0008F3F61F483E090E022D08093750085E754
:1010C00090E090938D0080938C0011C0C8DC83E089
:1010D00090E0D80112966C911AD009C085E790E093
:1010E00090938D0080938C008FEF8093750081E04A
:1010F0000F900F90CF91DF911F910F910895E1997B
:10110000FECF9FBB8EBBE09A99278DB30895262F03
:10111000E199FECF9FBB8EBB2DBB0FB6F894E29A30
:0C112000E19A0FBE01960895F894FFCFED
:06112C005AFF2000010043
:00000001FF
