:1000000046C06EC15FC05EC05DC05CC05BC05AC010
:1000100059C0A4C257C056C055C054C053C052C0E6
:1000200051C050C04FC0040309041E0368006F0094
:100030006D00650073002D0073006D00610072009B
:1000400074002E00720075001003750073006200CA
:100050002D006E007200660012011001FF00000802
:10006000C016DC05000101020001090212000101B5
:100070000080320904000000000000000A0B0C0D93
:100080000E0F11121314151600010203040511249A
:100090001FBECFE5D4E0DEBFCDBF10E0A0E6B0E0EC
:1000A000ECE7F0E102C005900D92A436B107D9F754
:1000B00013E0A4E6B0E001C01D92AF38B107E1F74C
:1000C0000AD6DAC79DCF85B7826085BF8BB78064BB
:1000D0008BBF08951F93CF93DF9390918A00935025
:1000E00097FD8AC020918700809186008D3209F0AB
:1000F00081C0983009F07EC0CCE0D0E0C21BD109AD
:10010000C257DF4F83EC80937A008AE580936000CA
:10011000109264008881807621F0CE0198D6282F35
:1001200060C09A81109283008981882331F41092F3
:10013000840083E890E022E050C0853019F4909369
:100140008B0048C08630B1F58B81813019F488E589
:1001500090E004C0823041F48AE690E090938900F8
:100160008093880022E122C08330F9F48A818823B9
:1001700041F486E290E0909389008093880024E027
:1001800015C0813041F48AE290E090938900809319
:1001900088002EE10BC0823041F488E490E0909317
:1001A00089008093880020E101C020E080E48093F2
:1001B000640017C0883019F48DE890E009C08930D8
:1001C00019F490938D0006C08A3021F483E890E002
:1001D00021E003C083E890E020E0909389008093C1
:1001E00088008F81882321F48E81821708F4282FBC
:1001F0002093610010928A008091600084FF49C0C2
:10020000809161008F3F09F444C0182F893008F0B5
:1002100018E0811B8093610080917A0098E889271B
:1002200080937A00112341F1209188003091890058
:100230008091640086FF0DC0ABE7B0E080E090E005
:10024000F901E80FF91FE491ED9301961817C1F732
:1002500008C0912FD901EBE7F0E08D918193915087
:10026000E1F71150812F90E01F5F0196820F931FDD
:1002700090938900809388008BE790E0612F2CD0C9
:10028000612F6C5F6C3019F08FEF80936100609389
:10029000600094E186B3837031F49150D9F71092E5
:1002A0008B0010928500DF91CF911F910895A82FA8
:1002B000B92F80E090E041E050EA609530E009C05D
:1002C0002D9182279795879510F084279527305E8A
:1002D000C8F36F5FA8F30895EADF8D939D930895A7
:1002E000CF93CFB7CF93C395B09BE9F7B09B09C02D
:1002F000B09B07C0B09B05C0B09B03C0B09B01C0C2
:10030000A1C0DF93C0918700DD27C257DF4FB09BAC
:1003100002C0DF91EBCF2F930F931F9306B32FEF04
:1003200000FB20F94F933F9316B34FEF012700FBDB
:1003300021F93BE031C04E7F012F16B3216028C068
:10034000102F4D7F2260000006B329C04B7F246030
:10035000012F000016B32BC016B3477F28602AC0B8
:100360004F7E06B320612CC04F7D16B320622FC094
:100370004F7B06B3206432C0422706B349934FEF48
:100380000000102710FB20F916B31370C9F1297F64
:1003900091F2012700FB21F906B3237F89F2315046
:1003A00058F1102710FB22F916B3277E79F20127A6
:1003B00000FB23F92F7C81F206B3102710FB24F9F0
:1003C0002F7971F200C016B3012700FB25F92F73B6
:1003D00059F200C006B3102710FB26F9223040F274
:1003E00000C016B3012700FB27F9243028F64F7709
:1003F000206816B30000F9CF10E41ABF002717C019
:100400003B503195C31BD04010E41ABF0881033C18
:10041000E9F00B34D9F0209185001981110F1213E6
:10042000EDCF093641F10D3211F0013E39F700935D
:100430008C003F914F911F910F912F91DF91CAB77F
:10044000C6FD51CFCF91CFBFCF91189520918C0091
:10045000222379F310918A00112311F5343012F11F
:1004600030938A0020938600109187003BE0311B77
:100470003093870017C000918A0001308CF40AE5A0
:100480003091600034FD10C000936000CAE7D0E0F6
:100490000FC02795A8F45150A9F4220F0000F9CFFE
:1004A0004AE503C042ED01C0432FC4E1D0E032E091
:1004B00017B31360C09A17BB08B320E413E05F932F
:1004C000012756E008BB279520F4515021F4220F54
:1004D000F9CF012756E000003B5A08BBD0F2279520
:1004E00028F4515029F4220F0000F9CF012756E0DB
:1004F000279508BB20F4515021F4220FF9CF012792
:1005000056E02991332308BB21F60C7F10918B0014
:10051000110FC651D04008BB11F01093850010E4B4
:100520001ABF016017B31C7F402F4C7F5F9100C042
:1005300000C008BB17BB48BB7CCF8CE287BB8CE3F9
:1005400088BB80E58DB91EB808958FB9779BFECF23
:1005500008958FB9779BFECF8FB108951F920F92A8
:100560000FB60F9211242F933F938F939F93AF93C6
:10057000BF938091690090916A00A0916B00B09147
:100580006C00309179000196A11DB11D232F235DD0
:100590002D3720F02D570196A11DB11D2093790014
:1005A0008093690090936A00A0936B00B0936C00F5
:1005B0008091650090916600A0916700B0916800FD
:1005C0000196A11DB11D8093650090936600A093D4
:1005D0006700B0936800BF91AF919F918F913F9159
:1005E0002F910F900FBE0F901F9018958FB7F89412
:1005F0002091690030916A0040916B0050916C002D
:100600008FBFB901CA01089591988F7180628FB927
:10061000779BFECF8FB16FB9779BFECF919A0895EC
:1006200091988F718FB9779BFECF8FEF8FB9779BA2
:10063000FECF8FB1919A0895982F919884E28FB947
:10064000779BFECF8FB16F709295907F962B9FB95D
:10065000779BFECF919A0895FB0191988F718062EC
:100660008FB9779BFECF9FB106C080818FB9779BF2
:10067000FECF319641504423C1F7919A892F0895B6
:100680009C01613208F060E2919880EA8FB9779B13
:10069000FECFF9012FB1962F06C080818FB9779BCD
:1006A000FECF319691509923C1F780E2861B04C09A
:1006B0001FB8779BFECF81508823D1F7919A822F64
:1006C0000895FF920F931F93DF93CF93CDB7DEB7BB
:1006D00028970FB6F894DEBF0FBECDBFF82E098362
:1006E0001A832B833C834D835E836F83788786E0F8
:1006F0008F1508F445C0EF2DF0E0BE016F5F7F4F0E
:1007000081E08F1528F0E458FF4F849145E004C044
:10071000E458FF4F849141E09FDF2F2D30E0F90135
:10072000EE57FF4FE4919198EF71E062EFB9779B3C
:10073000FECF8FB180E28FB9779BFECF919A9198CF
:1007400082E08FB9779BFECF8FEF8FB9779BFECF7B
:100750004FB1919A28573F4FF9012491919882E225
:100760008FB9779BFECF8FB181E090E002C0880FF8
:10077000991F2A95E2F7482B4FB9779BFECF919AA4
:1007800028960FB6F894DEBF0FBECDBFCF91DF9194
:100790001F910F91FF9008950F931F93DF93CF93B5
:1007A000CDB7DEB728970FB6F894DEBF0FBECDBF2A
:1007B00029833A834B835C836D837E838F83988701
:1007C0008E010F5F1F4F8AE0B80145E045DF80E1F1
:1007D000B80145E041DF919881E38FB9779BFECF67
:1007E0008FB180E28FB9779BFECF919A28960FB692
:1007F000F894DEBF0FBECDBFCF91DF911F910F9157
:100800000895982F919886E08FB9779BFECF8FEF50
:100810008FB9779BFECF2FB1919A919886E28FB9CD
:10082000779BFECF8FB1892F90E083709070880FF7
:10083000991F297F282B2FB9779BFECF919A089576
:10084000282F919886E08FB9779BFECF8FEF8FB9D5
:10085000779BFECF9FB1919A977D213011F49062E2
:1008600003C0233009F49860919886E28FB9779B92
:10087000FECF8FB19FB9779BFECF919A80E090E039
:100880000895919882EE8FB9779BFECF8FB1919AA0
:100890000895919881EE8FB9779BFECF8FB1919A91
:1008A0000895982F919885E28FB9779BFECF8FB1ED
:1008B000892F903808F08FE78FB9779BFECF919AF8
:1008C0000895282F91981FB8779BFECF8FEF8FB98F
:1008D000779BFECF9FB1919A937F213011F498605E
:1008E00003C0223009F49C60919880E28FB9779B15
:1008F000FECF8FB19FB9779BFECF919A08959198C3
:100900001FB8779BFECF8FEF8FB9779BFECF9FB13C
:10091000919A919880E28FB9779BFECF8FB19D7F9E
:100920009FB9779BFECF919A089591981FB8779BB6
:10093000FECF8FEF8FB9779BFECF9FB1919A9198A1
:1009400080E28FB9779BFECF8FB192609FB9779B82
:10095000FECF919A08951F93889A899A8CE287BB5B
:100960001CE318BB80E58DB91EB89098919A88E970
:100970009AE30197F1F783E044DF82E061DF82E0F0
:10098000A0DF91981FB9779BFECF8FB11FB8779BDF
:10099000FECF919A919887E28FB9779BFECF8FB166
:1009A00080E78FB9779BFECF919A919885E28FB9B6
:1009B000779BFECF8FB189E18FB9779BFECF919A5C
:1009C000919884E28FB9779BFECF8FB18FEF8FB96B
:1009D000779BFECF919A919882EE8FB9779BFECF4D
:1009E0008FB1919A919881EE8FB9779BFECF8FB19D
:1009F000919A1F91089591981FB8779BFECF8FEF22
:100A00008FB9779BFECF9FB1919A919880E28FB971
:100A1000779BFECF8FB193609FB9779BFECF919A62
:100A2000919887E28FB9779BFECF8FB180E78FB91E
:100A3000779BFECF919A919882EE8FB9779BFECFEC
:100A40008FB1919A919881EE8FB9779BFECF8FB13C
:100A5000919A909A86E891E00197F1F7089588239A
:100A600059F0919881E28FB9779BFECF8FB18FE3D8
:100A70008FB9779BFECF09C0919881E28FB9779BA0
:100A8000FECF8FB11FB8779BFECF919A0895FC01DE
:100A900091988FEF8FB9779BFECF9FB1919A292FB5
:100AA000207496FF1EC0309721F0892F869587709D
:100AB0008083919887E28FB9779BFECF8FB180E4D6
:100AC0008FB9779BFECF919A95FF0BC0919887E2E3
:100AD0008FB9779BFECF8FB180E28FB9779BFECF26
:100AE000919A822F90E008959C01613208F060E2B3
:100AF000919881E68FB9779BFECFF9018FB1962F40
:100B00002FEF06C02FB9779BFECF8FB18193915005
:100B10009923C1F780E2861B9FEF04C09FB9779BA2
:100B2000FECF81508823D1F7919A919887E18FB9B0
:100B3000779BFECF8FEF8FB9779BFECF8FB1919AC6
:100B4000817008959098919881EE8FB9779BFECF30
:100B50008FB1919A919882EE8FB9779BFECF8FB12A
:100B6000919A0895E0918D03F0918E0320E030E09A
:100B700008C0808191810296280F391F0280F3817D
:100B8000E02D3097B1F7C9010895DF93CF9300D0DE
:100B9000CDB7DEB72091C4003091C500CE010196DB
:100BA0002115310529F48B5893409A83898318C005
:100BB000AC01421B530BE0918D03F0918E0320E0BA
:100BC00030E008C0808191810296280F391F028091
:100BD000F381E02D3097B1F7240F351F3A83298335
:100BE00089819A810F900F90CF91DF910895BF92E4
:100BF000CF92DF92EF92FF920F931F93AC019198E7
:100C00001FB8779BFECF8FEF8FB9779BFECF2FB1A9
:100C1000919A919880E28FB9779BFECF8FB12C7F0C
:100C200022602FB9779BFECF919AE2ECF1E03197E9
:100C3000F1F7CA0125DD909A8CE38A95F1F7909837
:100C40008FB7F894C0906900D0906A00E0906B0074
:100C5000F0906C008FBF48E0B42E0FEF9198BFB8B2
:100C6000779BFECF1FB10FB9779BFECF8FB1919AC3
:100C700031DA1073A1F42FB7F89480916900909144
:100C80006A00A0916B00B0916C002FBF8C199D0978
:100C9000AE09BF09845F9140A040B040F8F291983E
:100CA00087E28FB9779BFECF1FB180E78FB9779B23
:100CB000FECF919A24DE919881EE8FB9779BFECF7B
:100CC0008FB1919A812F1F910F91FF90EF90DF903C
:100CD000CF90BF900895DF93CF930F92CDB7DEB73B
:100CE0002EE088E190E00FB6F894A89581BD0FBE84
:100CF00021BDE9D9B89A20E048EB5BE004C0A89593
:100D0000CA010197F1F72150D1F7B898A09AA19A9A
:100D1000A89AA99A83E083BF12BE81E089BF1BDE37
:100D200081E090E094D18CDD80E090E090D1982F2C
:100D30008F3F71F0919885E28FB9779BFECF8FB18D
:100D4000892F903808F08FE78FB9779BFECF919A63
:100D500083E090E07CD1811181E081DE21EE30EFF3
:100D600040EF50EF60EF70E080E090E015DD81E053
:100D700002ED10EF20EF30EF40EF50E060E070E068
:100D8000A0DC39DE78945E010894A11CB11C8FB7F9
:100D9000F894E0906900F0906A0000916B00109167
:100DA0006C008FBFA89580916D0090916E00A0910E
:100DB0006F00B0917000A8019701281B390B4A0BF6
:100DC0005B0B293031054105510520F48091C600A7
:100DD0008823D9F5A9981982C50159DE892B61F1BB
:100DE000A89884EA90E060E27FDED82EA4EAB0E022
:100DF0008091A4008150E82FF0E055E0EE0FFF1F36
:100E00005A95E1F7E553FF4F8D91819330E0A43C73
:100E1000B307D1F7A89A5ED9DD2011F39091C600EF
:100E20008091A400981741F48DDE86EC90E065E097
:100E3000DEDEE1DD1092C600E0926D00F0926E0001
:100E400000936F0010937000A99A44D9A0CF0F931C
:100E50001F93DF93CF9300D0CDB7DEB78C01FC0199
:100E600021812223A1F48281809371008381809368
:100E7000720084818093730085818093740081E780
:100E800090E0909389008093880084E0D9C0822FFD
:100E900081508631A0F481E090E0821B910965E0E9
:100EA000880F991F6A95E1F7909581959F4F85531B
:100EB0009F4F909389008093880080E2C1C0822F69
:100EC0008353863188F422532093C600F80182812F
:100ED0008093C70083818093C80084818093C90078
:100EE00085818093CA00ABC02E36C9F4F8016281B7
:100EF0006F3F21F480E090E0AAD088C0919885E20D
:100F00008FB9779BFECF8FB1862F603808F08FE7BF
:100F10008FB9779BFECF919A80E090E085C02F3605
:100F200061F4F80182818F3F21F481E090E08FD05D
:100F30006DC086DC81E090E075C02237E9F5209134
:100F4000C4003091C500CE0101962115310529F468
:100F50008B5893409A83898318C0AC01421B530B72
:100F6000E0918D03F0918E0320E030E008C0808195
:100F700091810296280F391F0280F381E02D30976E
:100F8000B1F7240F351F3A83298389819A81809391
:100F900071009093720080E28093730086E18093E9
:100FA00074008AE08093750081E790E09093890057
:100FB0008093880085E044C0233771F49198F8014C
:100FC00082818F718FB9779BFECF8FEF8FB9779B1F
:100FD000FECF8FB1919A1AC0243779F4F80193812A
:100FE000919882818F7180628FB9779BFECF8FB18C
:100FF0009FB9779BFECF919A22C02537B9F4F801AB
:1010000082818F3F61F483E090E021D08093710072
:1010100081E790E0909389008093880010C01FDDE5
:1010200083E090E0F80162811AD009C081E790E086
:1010300090938900809388008FEF8093710081E006
:101040000F900F90CF91DF911F910F910895E1992B
:10105000FECF9FBB8EBBE09A99278DB30895262FB4
:10106000E199FECF9FBB8EBB2DBB0FB6F894E29AE1
:0C107000E19A0FBE01960895F894FFCF9E
:04107C005AFF2000F7
:00000001FF
