:100000003DC065C156C055C054C053C052C051C058
:1000100050C04FC04EC04DC04CC04BC04AC049C07C
:1000200048C047C046C0040309041E0368006F00AF
:100030006D00650073002D0073006D00610072009B
:1000400074002E00720075001003750073006200CA
:100050006700700069006F0012011001FF000008C6
:10006000C016DC05000101020001090212000101B5
:1000700000803209040000000000000011241FBEAF
:10008000CFE5D4E0DEBFCDBF10E0A0E6B0E0E4E70E
:10009000FDE002C005900D92A436B107D9F710E03B
:1000A000A4E6B0E001C01D92A03AB107E1F737D451
:1000B0005FC6A6CF85B7826085BF8BB780648BBFD4
:1000C00008951F93CF93DF9390917D00935097FDF8
:1000D0008AC020917A00809179008D3209F081C028
:1000E000983009F07EC0CCE0D0E0C21BD109CF57D8
:1000F000DF4F83EC80936D008AE58093600010925F
:1001000064008881807621F0CE0162D4282F60C0FF
:100110009A81109276008981882331F410927700B9
:1001200086E790E022E050C0853019F490937E007D
:1001300048C08630B1F58B81813019F488E590E0B4
:1001400004C0823041F48AE690E090937C00809372
:100150007B0022E122C08330F9F48A81882341F4B4
:1001600086E290E090937C0080937B0024E015C0B1
:10017000813041F48AE290E090937C0080937B0090
:100180002EE10BC0823041F488E490E090937C0033
:1001900080937B0020E101C020E080E48093640034
:1001A00017C0883019F480E890E009C0893019F44C
:1001B0009093800006C08A3021F486E790E021E029
:1001C00003C086E790E020E090937C0080937B0062
:1001D0008F81882321F48E81821708F4282F2093A1
:1001E000610010927D008091600084FF49C0809181
:1001F00061008F3F09F444C0182F893008F018E0DF
:10020000811B8093610080916D0098E8892780931D
:100210006D00112341F120917B0030917C00809191
:10022000640086FF0DC0AEE6B0E080E090E0F9012A
:10023000E80FF91FE491ED9301961817C1F708C074
:10024000912FD901EEE6F0E08D9181939150E1F785
:100250001150812F90E01F5F0196820F931F9093A2
:100260007C0080937B008EE690E0612F2CD0612F84
:100270006C5F6C3019F08FEF8093610060936000C9
:1002800094E186B3837031F49150D9F710927E00D7
:1002900010927800DF91CF911F910895A82FB92F68
:1002A00080E090E041E050EA609530E009C02D9197
:1002B00082279795879510F084279527305EC8F39D
:1002C0006F5FA8F30895EADF8D939D930895CF9310
:1002D000CFB7CF93C395B09BE9F7B09B09C0B09B54
:1002E00007C0B09B05C0B09B03C0B09B01C0A1C0BC
:1002F000DF93C0917A00DD27CF57DF4FB09B02C05C
:10030000DF91EBCF2F930F931F9306B32FEF00FBDB
:1003100020F94F933F9316B34FEF012700FB21F9CC
:100320003BE031C04E7F012F16B3216028C0102F53
:100330004D7F2260000006B329C04B7F2460012F4F
:10034000000016B32BC016B3477F28602AC04F7E2B
:1003500006B320612CC04F7D16B320622FC04F7BA7
:1003600006B3206432C0422706B349934FEF000022
:10037000102710FB20F916B31370C9F1297F91F2F1
:10038000012700FB21F906B3237F89F2315058F190
:10039000102710FB22F916B3277E79F2012700FB04
:1003A00023F92F7C81F206B3102710FB24F92F7953
:1003B00071F200C016B3012700FB25F92F7359F223
:1003C00000C006B3102710FB26F9223040F200C00F
:1003D00016B3012700FB27F9243028F64F77206851
:1003E00016B30000F9CF10E41ABF002717C03B5026
:1003F0003195C31BD04010E41ABF0881033CE9F0DB
:100400000B34D9F0209178001981110F1213EDCF20
:10041000093641F10D3211F0013E39F700937F00AA
:100420003F914F911F910F912F91DF91CAB7C6FD58
:1004300051CFCF91CFBFCF91189520917F0022232C
:1004400079F310917D00112311F5343012F13093BE
:100450007D002093790010917A003BE0311B3093AE
:100460007A0017C000917D0001308CF40AE53091CC
:10047000600034FD10C000936000CDE6D0E00FC0F6
:100480002795A8F45150A9F4220F0000F9CF4AE5AE
:1004900003C042ED01C0432FC4E1D0E032E017B306
:1004A0001360C09A17BB08B320E413E05F930127E1
:1004B00056E008BB279520F4515021F4220FF9CFC4
:1004C000012756E000003B5A08BBD0F2279528F4DC
:1004D000515029F4220F0000F9CF012756E027954B
:1004E00008BB20F4515021F4220FF9CF012756E028
:1004F0002991332308BB21F60C7F10917E00110F48
:10050000C651D04008BB11F01093780010E41ABF18
:10051000016017B31C7F402F4C7F5F9100C000C06B
:1005200008BB17BB48BB7CCFBC9AC49880EF92ED48
:100530000197F1F7C49ABC9888EC8A95F1F7B499C1
:1005400031C080EF90E00197F1F7B49B2BC0B499D4
:10055000FECFE7E9F0E098E761E070E0108247E065
:1005600050E0B49BFECF892F8A95F1F7B49B0AC067
:100570009B01042E02C0220F331F0A94E2F78081F0
:10058000822B8083B499FECF415050408FEF4F3F74
:10059000580739F7319680E0EC39F807F9F621E091
:1005A00030E002C020E030E0C901089561307105FB
:1005B00039F58130910511F4A0980FC08230910572
:1005C00011F4A1980FC08330910511F4BA980FC0AF
:1005D0008430910511F4BB980FC08530910511F45A
:1005E000BC983EC08630910511F4BD9839C0873063
:1005F000910511F4889834C0089791F5899830C016
:100600008130910511F4A09A0FC08230910511F448
:10061000A19A0FC08330910511F4BA9A0FC08430AB
:10062000910511F4BB9A0FC08530910511F4BC9A65
:100630000FC08630910511F4BD9A0FC08730910527
:1006400011F4889A0DC08830910511F4899A08C078
:100650008130910511F4A89A03C0029709F4A99A70
:1006600080E090E0089520E030E04CE251E005C0E9
:10067000FA013197F1F72F5F3F4F28173907C0F381
:1006800008952F923F924F925F926F927F928F9236
:100690009F92AF92BF92CF92DF92EF92FF920F9311
:1006A0001F93CF93DF934A01BD9A80639B01AC01F6
:1006B000A4E15695479537952795AA95D1F72770C8
:1006C0003070F1E02F2E312C02C0220C331C2A9501
:1006D000E2F7EFEFAE2EEFEFBE2EEFE0CE2ED12CF5
:1006E000A622B722C822D922F894442455243201E4
:1006F000C0E0D0E08301720152E0EE0CFF1C001F4D
:10070000111F5A95D1F7C601B50123E030E040E052
:1007100050E0F7D22B013C014E285F28602A712A55
:10072000C601B50123E030E040E050E0EAD2C90163
:10073000DA015C016D012196CC30D105D9F6940126
:10074000220F331F280D391D840195E0000F111F62
:100750009A95E1F708191909C0E0D0E04CE251E0A0
:10076000C1C082E0D694C794B794A7948A95D1F774
:10077000D601C50183709070A070B0708130910572
:10078000A105B10509F438C081309105A105B10575
:1007900030F00297A105B10509F087C05AC0C59A8B
:1007A00080E090E004C0FA013197F1F701968815D6
:1007B0009905C8F3C59880E090E004C0FA0131972C
:1007C000F1F7019682179307C8F3C59A80E090E08D
:1007D00004C0FA013197F1F7019688159905C8F31D
:1007E000C59880E090E004C0FA013197F1F70196D6
:1007F00082179307C8F359C0C59A80E090E004C0FF
:10080000FA013197F1F7019682179307C8F3C5985B
:1008100080E090E004C0FA013197F1F70196881565
:100820009905C8F3C59A80E090E004C0FA013197B9
:10083000F1F7019682179307C8F3C59880E090E01E
:1008400004C0FA013197F1F7019688159905C8F3AC
:100850002CC0C59A80E090E004C0FA013197F1F70E
:10086000019688159905C8F3C59880E090E004C00A
:10087000FA013197F1F7019682179307C8F3C59AE9
:1008800080E090E004C0FA013197F1F701968217F9
:100890009307C8F3C59880E090E004C0FA0131974F
:1008A000F1F7019688159905C8F36F5F7F4F6C309B
:1008B000710509F056CFC59A80E090E004C0FA01B6
:1008C0003197F1F7019688159905C8F3C59880E02E
:1008D00090E004C0FA013197F1F701968017910773
:1008E000C8F32196C215D30528F46301520160E0D4
:1008F00070E03ECF7894BD98DF91CF911F910F911A
:10090000FF90EF90DF90CF90BF90AF909F908F902F
:100910007F906F905F904F903F902F9008952EE0C2
:1009200088E190E00FB6F894A89581BD0FBE21BD77
:10093000C1DBB89A20E048EB5BE004C0A895CA018F
:100940000197F1F72150D1F7B898A09AA19ABA9AD5
:10095000BB9ABC9ABD9A889A899AA89AA99A7894BF
:10096000C8EBDBE0A895CE010197F1F7809162001A
:100970009091630080569A4E01F510926300109298
:10098000620084B180939E0010929F0085B1809395
:100990009C0010929D0010929B0010929A00109261
:1009A0009900109298001092970084EF91E0CBD1BB
:1009B000813019F4F894B8DD7894809162009091B8
:1009C0006300019690936300809362007ADBCACF44
:1009D000CF93DF93EC0189818823A1F48A818093EE
:1009E00065008B81809366008C81809367008D8188
:1009F0008093680085E690E090937C0080937B0074
:100A000084E07CC1813009F04AC08A81833039F4A6
:100A10008B8180FF02C0C29A70C1C2986EC18430BF
:100A200039F48B8180FF02C0C39A67C1C39865C146
:100A3000853039F48B8180FF02C0C49A5EC1C498AE
:100A40005CC1863039F48B8180FF02C0C59A55C1E4
:100A5000C59853C1873039F48B8180FF02C0909ACA
:100A60004CC190984AC1883039F48B8180FF02C014
:100A7000919A43C1919841C1813039F48B8180FFB3
:100A800002C0A8983AC1A89A38C1823009F035C18D
:100A90008B8180FF02C0A99830C1A99A2EC18230F3
:100AA00041F0833079F48A8190E081509F4F6B81CF
:100AB00052D18A81809365006B818A8190E070E0D9
:100AC00075DD1FC08430B1F47B8160E02A81620F44
:100AD000711D80E090E02C8130E040E050E0A90101
:100AE00033272227620F731F841F951F4D8150E00B
:100AF000C8DD03C1853069F484EF91E024D180938F
:100B0000650085E690E090937C0080937B0081E017
:100B1000F5C0863059F484EF91E06A811CD18CEFE6
:100B200099EE9093630080936200E7C0813181F475
:100B300080919E008093650080919C008093660068
:100B400085E690E090937C0080937B0082E0D6C0A5
:100B50008631E1F480919700809365008091980040
:100B600080936600809199008093670080919A003D
:100B70008093680080919B008093690085E690E0F7
:100B800090937C0080937B0085E0B8C0883169F445
:100B9000BB9A8A8183BD85B5806285BD85B5886431
:100BA00085BD85B5826085BDA8C0873179F4BA9AC4
:100BB0008A8190E099BD88BD8FB580628FBD8FB569
:100BC00083608FBD8EB582608EBD97C0853171F414
:100BD000C0E0D1E0CE01B7D0FE01EB59F0408083F8
:100BE000219681E0C830D807A9F77FC08931C1F5C7
:100BF00083B381708093650083B390E09695879569
:100C000081708093660086B390E09695879596955F
:100C1000879581708093670086B390E0F3E09695A6
:100C20008795FA95E1F781708093680086B390E02C
:100C3000E4E096958795EA95E1F7817080936900E5
:100C400086B390E075E0969587957A95E1F7817087
:100C500080936A0080B3817080936B0080B33FC043
:100C6000843109F04AC085B321E030E082278170E9
:100C70008093650085B390E09695879582279327AA
:100C800081708093660088B390E0969587959695DD
:100C9000879581708093670088B390E043E09695D4
:100CA00087954A95E1F781708093680088B390E05A
:100CB00034E0969587953A95E1F7817080936900C5
:100CC00088B390E025E0969587952A95E1F78170A5
:100CD00080936A0082B3817080936B0082B390E04E
:100CE00096958795817080936C0085E690E090934F
:100CF0007C0080937B0088E001C080E0DF91CF9191
:100D00000895A1E21A2EAA1BBB1BFD010DC0AA1F4C
:100D1000BB1FEE1FFF1FA217B307E407F50720F064
:100D2000A21BB30BE40BF50B661F771F881F991FDF
:100D30001A9469F760957095809590959B01AC0128
:100D4000BD01CF010895E199FECF9FBB8EBBE09A14
:100D500099278DB30895262FE199FECF9FBB8EBBB7
:100D60002DBB0FB6F894E29AE19A0FBE0196089552
:040D7000F894FFCF25
:040D74005AFFFCE93D
:00000001FF
