:100000009FC1AFCAB8C1B7C1B6C1B5C1B4C1B3C150
:10001000B2C1B1C1B0C194C8BDC8ADC1ACC1ABC162
:10002000AAC1A9C1A8C10D0A00203A200023206955
:100030006E20427573203A002044533138583230D4
:100040002053656E736F7228732920617661696C25
:1000500061626C653A0D0A002D2D2D2D2D2D2D2D53
:100060002D2D2D2D2D2D2D2D2D2D2D2D2D2D2D2DC0
:100070002D2D2D2D2D2D2D2D2D2D2D2D2D2D2D2DB0
:100080000D0A000D0A55534274656D70202D2074C1
:10009000656D706572617475726520617420796F29
:1000A00075722066696E676572746970730D0A00F7
:1000B0000D0A00203D200053656E736F72232000EF
:1000C000435243204572726F7220286C6F73742004
:1000D000636F6E6E656374696F6E3F290053746160
:1000E0007274206D6561732E206661696C65642091
:1000F0002873686F727420636972637569743F292D
:100100000073746172746564206D656173757265E6
:100110006D656E742E0D0A000D0A52656164696E7C
:10012000672074656D706572617475726520666FA5
:100130007220616C6C2073656E736F7273202D205A
:10014000002043656C736975730030002E004275A2
:1001500073204572726F720D0A004E6F2053656EE8
:10016000736F7220666F756E640D0A0044533138E8
:100170005832305F726563616C6C5F45323A205370
:10018000686F7274204369726375697420210D0A67
:1001900000445331385832305F636F70795F736356
:1001A00072617463687061643A2053686F7274207E
:1001B0004369726375697420210D0A004453313814
:1001C0005832305F726561645F7363726174636833
:1001D0007061643A2053686F72742043697263756A
:1001E000697420210D0A00445331385832305F774A
:1001F000726974655F736372617463687061643A95
:100200002053686F7274204369726375697420218A
:100210000D0A00445331385832305F737461727480
:100220005F6D6561733A2053686F72742043697221
:100230006375697420210D0A000D0A002000423206
:10024000302F303900204232302F313020004232FE
:10025000302F3131004232302F3132005332302FC3
:10026000303900200020545F7261773D000D0A0094
:1002700020435243204F2E4B2E2000204352432038
:100280004641494C20000D0A0042757320457272A8
:100290006F720D0A004E6F2053656E736F72206689
:1002A0006F756E640D0A0020004352433A005350AC
:1002B0003A0020435243204F2E4B2E200020435221
:1002C00043204641494C200028203F202900283166
:1002D000384229002831385329002000534E3A2053
:1002E000004352433A0046433A00B0430030002EE8
:1002F0000004030904160367006F006E00690075AF
:10030000006D002E006E0065007400100375007310
:10031000006200740065006D00700012011001FFA2
:10032000000008C016DC05000101020001090212EC
:1003300000010100803209040000000000000000FC
:1003400011241FBECFE5D4E0DEBFCDBF10E0A0E694
:10035000B0E0E0EBF8E102C005900D92AE36B107D7
:10036000D9F711E0AEE6B0E001C01D92A635B107A5
:10037000E1F7BCD19BCA44CEFC018EE690E090939D
:100380003B0180933A018181882341F482818093EB
:100390006E00838180936F0082E00895813029F49C
:1003A0008091F40080936E000DC0853031F486E0BA
:1003B00080936E00A19AA99A05C0863029F4809393
:1003C0006E00A99881E00895823071F5E281F0E035
:1003D00053E0EE0FFF1F5A95E1F79F012C5F3E4F50
:1003E000D9018C9180936E0011968C9180936F004F
:1003F000DF01AA5FBE4F8C9180937000D9011396E4
:100400008C91139780937100E85FFE4F80818093F9
:10041000720015968C9115978093730016968C91A7
:100420008093740087E00895833011F080E0089590
:1004300092818091F400891708F490E090936E0007
:10044000892F90E0FC01EE0FFF1FE80FF91FEB5022
:10045000FF4F808180936F00818180937000828143
:100460008093710084E00895A09A0895A09808955B
:100470008F929F92AF92BF92CF92DF92FF920F9393
:100480001F93DF93CF9300D00F92CDB7DEB7FF2439
:10049000F2E08F2E912C8C0E9D1EE3E0AE2EB12C3F
:1004A000AC0EBD1E6E010894C11CD11C22C00F2DC4
:1004B00010E0C80173E0880F991F7A95E1F78C5F0F
:1004C0009E4FB601A401950103D4882371F4F8016D
:1004D000EE0FFF1FE00FF11FEB50FF4F898180836C
:1004E0008A8181838B81828303C080EC90E0C7D6B0
:1004F000F3948091F400F816D0F20F900F900F90C3
:10050000CF91DF911F910F91FF90DF90CF90BF901F
:10051000AF909F908F90089588E191E0B0D680E0F1
:1005200060E070E000D3882319F481E091E002C01C
:100530008DED90E0A4D60895EFDF6CE872E88EE1CF
:1005400090E01CD295DF08950F931F93DF93CF9314
:10055000CDB7DEB761970FB6F894DEBF0FBECDBF43
:10056000162F042F882311F48BE201C08DE269D687
:10057000812F90E0A2D68CE491E081D6202F30E04C
:1005800081E792E0AC01249FC001259F900D349F2C
:10059000900D11248E010F5F1F4FB8014AE050E00B
:1005A00056D9F80101900020E9F70E1B0B5F10E00F
:1005B00004C08AE491E063D61F5F1017D0F3CE0128
:1005C000019651D681E491E05AD661960FB6F8941F
:1005D000DEBF0FBECDBFCF91DF911F910F91089568
:1005E000FF920F931F93FF241AC087EB90E047D62A
:1005F0000F2D10E0C801019660D683EB90E03FD646
:10060000F801EE0FFF1FE00FF11FEB50FF4F80814D
:100610006181428199DF80EB90E031D6F394809143
:10062000F400F81610F31F910F91FF9008958F9228
:100630009F92AF92BF92DF92EF92FF920F931F9320
:10064000DF93CF93CDB7DEB729970FB6F894DEBF0F
:100650000FBECDBF8FEF898300E010E022E0E22ED5
:10066000F12CEC0EFD1E4E010894811C911C9AE0A9
:10067000A92EB12CAC0EBD1E1FC0C401B7018FD373
:1006800089818F3F19F48AE591E004C08E3F21F4FF
:100690008EE491E0F4D517C0D701F80183E0EE0FA6
:1006A000FF1F8A95E1F7EC5FFE4F8D918193AA15AC
:1006B000BB05D9F70F5F1F4FD02E8981882319F012
:1006C00005301105D1F68D2D29960FB6F894DEBFB1
:1006D0000FBECDBFCF91DF911F910F91FF90EF9093
:1006E000DF90BF90AF909F908F900895DF92EF9230
:1006F000FF920F931F9387E690E071D58BEF81BB3C
:1007000012BAB89A4AEFF42E20E737E103C0C901C4
:100710000197F1F7FA94D9F7B89809D6789483E855
:1007200090E0ADD588E590E0AAD5A09A60E472E4A7
:100730008FE090E023D17BDF8093F400882311F4D5
:10074000A09801C0A09A90E0B8D588E390E097D532
:100750001AC08DE290E093D50F2D10E0C8010196EC
:10076000ACD589E290E08BD533E0000F111F3A95AC
:10077000E1F7C8018C5F9E4F68E070E058D386E2D5
:1007800090E07DD5F3948091F400F81610F3D4DE58
:1007900027DFEE24FF248701DD24D0D562E174E356
:1007A00080E090E0EBD085E090E0A0E0B0E0E80EE3
:1007B000F91E0A1F1B1FDD2079F491E6E9169AEE57
:1007C000F90690E0090790E0190738F3A5DEA09834
:1007D000EE24FF24870110C0A1E0DA16F1F6BFEE87
:1007E000EB16B2E0FB06B0E00B07B0E01B0720F011
:1007F0003FDEF6DEA09ACDCFDD24D394CECF86B3F4
:1008000080710895C49ABC9A0895C498BC980895BC
:10081000C498BC9A8FE897E08115910511F0019773
:10082000F1F78FB7F894BC98E9E0F1E0E115F10534
:1008300011F03197F1F726B38FBF85E896E0811567
:10084000910511F00197F1F7B49902C081E0089584
:10085000822F807108959FB7F894BC9AE3E0F0E08E
:10086000E115F10511F03197F1F78111BC98E8E33A
:10087000F0E0E115F10511F03197F1F7B49B80E05C
:10088000E5EBF0E0E115F10511F03197F1F7BC98D7
:100890009FBF08950F931F93182F08E0812F817039
:1008A000DADF1695811110680150C1F7812F1F9171
:1008B0000F9108958FEFEEDF0895DF92EF92FF9290
:1008C0000F931F93CF93DF93E82EEB01A1DF8823D3
:1008D00081F580EFDFDF80E4FF24182F98EFD92E19
:1008E000D80E81E0B8DF082F81E0B5DF882329F03A
:1008F000002371F08EEFF82E1EC0002349F41E1560
:1009000028F0888180FF04C0E11611F0F12E01E08B
:10091000802FA1DF888186958883002311F080686D
:10092000888311501D15E9F6112329F02196812F96
:10093000D4CFFF24FA948F2DDF91CF911F910F9187
:10094000FF90EF90DF9008950F931F93CF93DF9365
:10095000082FEB015DDF209741F085E59BDF18E074
:10096000899198DF1150E1F702C08CEC93DF802F62
:1009700091DFDF91CF911F910F910895DC01CB01A1
:1009800081159105A105B10529F081509040A04045
:10099000B040D9F70895FF920F931F93CF93DF9341
:1009A000F82EFB01DA01E9018081482F50E09181A6
:1009B00080E0482B592B80E1F81671F4CA018E7F34
:1009C00033E0880F991F3A95E1F726814CE050E01B
:1009D000421B5109480F591F57FF06C081E08C93F5
:1009E000509541955F4F01C01C9288E2F81691F432
:1009F0008481682F70E0CB018076907080369105FD
:100A000049F066FF02C04E7F05C065FF02C04C7F03
:100A100001C0487FCA0124E0969587952A95E1F7A1
:100A20008883842F8F70F801808380E0DF91CF91DD
:100A30001F910F91FF9008950F931F93DF93CF9312
:100A4000CDB7DEB728970FB6F894DEBF0FBECDBF87
:100A5000082F162FDE011196E3E6F0E088E0019002
:100A60000D928150E1F7242F30E081E792E0BC0144
:100A7000269FC001279F900D369F900D112468EE90
:100A800073E0BED6CB012AE0129FB0011124680F9B
:100A9000791F002379F4FE0131969E01275F3F4FB5
:100AA0008081481719F46F5F7F4F04C03196E217B9
:100AB000F307B1F7CB0128960FB6F894DEBF0FBE4F
:100AC000CDBFCF91DF911F910F910895882319F029
:100AD000709561957F4F442319F0309521953F4FD4
:100AE0006217730714F48FEF089580E02617370715
:100AF0000CF481E00895CF93DF93EC0189DE7FDE73
:100B0000882351F088EBBE011FDF64E278E680E0C5
:100B100090E034DF80E004C08CE691E0B0D381E067
:100B2000DF91CF9108951F93CF93DF93182FEB019F
:100B30006FDE65DE882341F084E4BE0105DF1130FD
:100B400009F060DE80E004C083E192E098D382E0A7
:100B5000DF91CF911F9108951F93CF93DF93182FAB
:100B6000EB0156DE4CDE882381F088E4BE01ECDE2A
:100B7000113009F047DE64E278E680E090E0FEDEC6
:100B8000113009F042DE80E004C081E991E077D3C2
:100B900082E0DF91CF911F9108950F931F93CF9320
:100BA000DF93EC018B0134DE2ADE882381F08EEBAB
:100BB000BE01CADEC0E0D0E07DDEF801EC0FFD1F13
:100BC00080832196C930D105B9F780E004C08CEB51
:100BD00091E055D381E0DF91CF911F910F9108955E
:100BE000FF920F931F93CF93DF93EC01162F042FE7
:100BF000F22E0EDE04DE882371F08EE4BE01A4DE48
:100C0000812F48DE802F46DE8881883211F48F2DB7
:100C100041DE80E004C087EE91E031D381E0DF91D6
:100C2000CF911F910F91FF9008957F928F929F9285
:100C3000AF92BF92CF92DF92EF92FF920F931F93EA
:100C4000DF93CF93CDB7DEB729970FB6F894DEBF09
:100C50000FBECDBF782E6B015A0149018EEB60E0CB
:100C600070E072DE8E010F5F1F4F4AE0E42EF12C20
:100C7000EC0EFD1E1FDEF80181938F01EE15FF05BE
:100C8000C9F77E010894E11CF11CC70169E070E01E
:100C90002ED3882311F083E007C0872DB701A6016A
:100CA0009501840178DE80E029960FB6F894DEBFC6
:100CB0000FBECDBFCF91DF911F910F91FF90EF90AD
:100CC000DF90CF90BF90AF909F908F907F900895CE
:100CD0006F927F928F929F92AF92BF92CF92DF924C
:100CE000EF92FF920F931F93DF93CF93CDB7DEB7B1
:100CF00029970FB6F894DEBF0FBECDBF6C015B0124
:100D00004A01390185DD8EEBB6011EDE8E010F5FD3
:100D10001F4F5AE0E52EF12CEC0EFD1ECBDDF80145
:100D200081938F01EE15FF05C9F77E010894E11C40
:100D3000F11CC70169E070E0DAD2882311F083E08A
:100D400008C0F6018081B701A5019401830123DE6B
:100D500080E029960FB6F894DEBF0FBECDBFCF91CD
:100D6000DF911F910F91FF90EF90DF90CF90BF9098
:100D7000AF909F908F907F906F9008950F931F93E7
:100D80008C0146DD84EBB801DFDD81E064DD182FE6
:100D90003FDD111111E0812F1F910F9108950F93E5
:100DA0001F93CF93DF938C01EB01F8018081BE018B
:100DB00084DDF801808381508D3F28F4888188325A
:100DC00011F0803191F7DF91CF911F910F9108952C
:100DD000CF92DF92EF92FF920F931F93CF93DF9307
:100DE0006C018B018EEA92E04AD2C0E0D0E078013B
:100DF0000894E108F1080FC0CE15DF0519F489EA5F
:100E000092E03DD2F601EC0FFD1F80814DD287EAC2
:100E100092E035D22196C017D10770F3DF91CF91C0
:100E20001F910F91FF90EF90DF90CF900895CF9298
:100E3000DF92EF92FF920F931F93CF93DF938C017A
:100E40007B01C0E0D0E06B010894C108D1082BC041
:100E5000209719F486EE92E00BC0CC15DD0519F44D
:100E600081EE92E00CD2C130D10519F48CED92E004
:100E700006D2F801EC0FFD1F808116D28AED92E0B8
:100E8000FED1209779F4F8018081803119F484ED46
:100E900092E007C0883219F48EEC92E002C088EC30
:100EA00092E0EDD12196CE15DF0590F2C80168E001
:100EB00070E01DD2882319F08DEB92E002C082EB26
:100EC00092E0DDD1DF91CF911F910F91FF90EF90D4
:100ED000DF90CF900895CF92DF92EF92FF920F9321
:100EE0001F93DF93CF93CDB7DEB761970FB6F8941A
:100EF000DEBF0FBECDBF162F042F882311F48BE267
:100F000001C08DE29ED1812F90E0D7D18FEE92E08B
:100F1000B6D1802F90E021E732E0AC01429FC001C2
:100F2000439F900D529F900D11248E010F5F1F4F14
:100F3000B8014AE050E08BD4EE24FF2464E0C62ED2
:100F4000D12C06C08DEE92E09AD10894E11CF11CE0
:100F5000F80101900020E9F73197E01BF10BC60181
:100F60008E1B9F0BE816F90668F3C8017CD18AEE48
:100F700092E085D161960FB6F894DEBF0FBECDBF6B
:100F8000CF91DF911F910F91FF90EF90DF90CF9065
:100F900008952F923F924F925F926F927F928F921D
:100FA0009F92AF92BF92DF92EF92FF920F931F93A7
:100FB000DF93CF93CDB7DEB766970FB6F894DEBF59
:100FC0000FBECDBFDD24DA94A4E08A2E912C8C0EC6
:100FD0009D1EFCE0AF2EB12CAC0EBD1ECE01459681
:100FE0009E8B8D8BE2E02E2E312C2C0E3D1E73E05D
:100FF000472E512C4C0E5D1E3E010894611C711C45
:101000008D2DB4015ADCD82E9FEF891729F485E97C
:1010100092E035D18FEF7CC0EEEF8E1729F489E88E
:1010200092E02DD18EEF74C0C40168E070E0FFDE65
:101030008C81883219F0803109F063C086E892E033
:101040001ED18EEB27DC850135DCF80181938F0101
:101050008D899E89E817F907B9F7C50169E070E045
:10106000B7DEC50169E070E042D1882319F08BE753
:1010700092E002C080E792E002D18DE692E0FFD0DC
:101080000C8510E0FD84EE240E291F2985E692E0F0
:10109000F6D0812F09D1802F07D183E692E0EFD0DF
:1010A0008C81803119F48CE592E01AC08832C9F441
:1010B0008889282F30E0C9018076907080369105AC
:1010C00019F485E592E00CC026FF03C08EE492E09F
:1010D00007C025FF03C085E492E002C08EE392E0E2
:1010E000CED08CE392E0CBD08C81B501A3019101ED
:1010F000820151DC89816A814B81EDDE80E690E0DE
:10110000B2D0DD2009F07CCF89E392E0B8D080E056
:1011100066960FB6F894DEBF0FBECDBFCF91DF91BC
:101120001F910F91FF90EF90DF90BF90AF909F9035
:101130008F907F906F905F904F903F902F90089589
:101140001F920F920FB60F9211242F938F939F939C
:10115000EF93FF939BB12CB1E091F000EF5FEF7143
:101160008091F100E81711F482E008C0892F88719E
:10117000E093F000F0E0E253FF4F20838093F20011
:10118000FF91EF919F918F912F910F900FBE0F9034
:101190001F9018951F920F920FB60F9211248F93E4
:1011A0009F93EF93FF939091EE008091EF0098173B
:1011B00061F0E091EF00EF5FEF71E093EF00F0E09E
:1011C000E255FF4F80818CB901C05598FF91EF9196
:1011D0009F918F910F900FBE0F901F9018959C01BB
:1011E0001092EE001092EF001092F0001092F100B9
:1011F00097FF03C082E08BB93F7730BD29B988E9FA
:101200008AB986E880BD08959091F0008091F10040
:10121000981719F420E031E012C0E091F100EF5F7F
:10122000EF71E093F100F0E0E253FF4F3081209145
:10123000F200922F80E0AC01430F511D9A01C901C9
:101240000895282F9091EE009F5F9F718091EF008D
:101250009817E1F3E92FF0E0E255FF4F20839093D8
:10126000EE00559A0895CF93DF93EC0102C02196CA
:10127000E8DF88818823D9F7DF91CF910895CF9354
:10128000DF93EC0101C0DDDFFE012196849188230C
:10129000D1F7DF91CF9108958F708A3010F0895C7B
:1012A00001C0805DCEDF08951F93182F82958F7047
:1012B000F3DF812FF1DF1F910895DF93CF93CDB737
:1012C000DEB761970FB6F894DEBF0FBECDBFBE018B
:1012D0006F5F7F4F4AE050E0BAD2C5DF61960FB62C
:1012E000F894DEBF0FBECDBFCF91DF910895DC0132
:1012F00020E040E050E098E115C0FD01E40FF51F4B
:10130000E08138E08E2F8227F82FF17080FD2927A9
:101310002695F13009F42068315011F0E695F2CFAE
:101320004F5F5F4F4617570741F7822F089585B7E4
:10133000836085BF8BB780648BBF08950F931F9325
:10134000CF93DF9390913C0119160CF095C020913A
:101350003901809138018D3209F084C08AE580938B
:101360006C009B3009F07EC0CCE0D0E0C21BD109FC
:10137000C05CDE4F8881807609F066C0109235012E
:101380008981882359F41092360185E391E0909386
:101390003B0180933A0190E822E05DC0853021F462
:1013A0008A8180933D0145C08630B1F58B818130C3
:1013B00019F48BE193E004C0823049F48DE293E0AC
:1013C00090933B0180933A0190EC22E144C083303A
:1013D00009F03FC08A81882349F481EF92E090931D
:1013E0003B0180933A0190EC24E035C0813049F410
:1013F00085EF92E090933B0180933A0190EC26E1D7
:101400002AC0823031F58BE093E090933B018093CA
:101410003A0190EC20E11FC0883019F48FE391E08D
:101420000CC0893021F48A8180933F0102C08A3048
:1014300011F090E80FC085E391E090933B01809319
:101440003A0190E821E007C0CE0196D7282F90E816
:1014500002C090EC20E08F81882339F48E818217BE
:1014600028F003C090E880E001C0822F9093F30041
:1014700080936B0010923C0180916C0084FF49C006
:1014800080916B008F3F09F444C0182F893008F019
:1014900018E0811B80936B008091F30080FD02C0F7
:1014A0000BE401C003EC8F5F8093F30020913A01BD
:1014B00030913B0186FD05C0D901912FEDE2F1E0AD
:1014C00011C0ADE2B1E080E090E006C0F901E80FA4
:1014D000F91FE491ED9301961817C1F705C08D919E
:1014E000819391509923D9F7F901E10FF11DF09300
:1014F0003B01E0933A018DE291E0612F2ED018304C
:1015000019F08FEF80936B0000932C011C5F1093F8
:101510006C009AE086B3837031F49150D9F7109241
:101520003D0110923701DF91CF911F910F910895E6
:10153000A82FB92F80E090E041E050EA60956F5FFE
:1015400058F42D9138EF82279795879510F08427CE
:1015500095273F5FC8F3F3CF0895EADF8D939D93FE
:101560000895CF93CFB7CF93B09BFECFB09B09C068
:10157000B09B07C0B09B05C0B09B03C0B09B01C02F
:10158000A1C0DF93C0913901DD27C05CDE4FB09B65
:1015900002C0DF91EBCF2F930F931F9306B32FEF72
:1015A00000FB20F94F933F9316B34FEF012700FB49
:1015B00021F93BE031C04E7F012F16B3216028C0D6
:1015C000102F4D7F2260000006B329C04B7F24609E
:1015D000012F000016B32BC016B3477F28602AC026
:1015E0004F7E06B320612CC04F7D16B320622FC002
:1015F0004F7B06B3206432C0422706B349934FEFB6
:101600000000102710FB20F916B31370C9F1297FD1
:1016100091F2012700FB21F906B3237F89F23150B3
:1016200058F1102710FB22F916B3277E79F2012713
:1016300000FB23F92F7C81F206B3102710FB24F95D
:101640002F7971F200C016B3012700FB25F92F7323
:1016500059F200C006B3102710FB26F9223040F2E1
:1016600000C016B3012700FB27F9243028F64F7776
:10167000206816B30000F9CF10E41ABF002717C086
:101680003B503195C31BD04010E41ABF0881033C86
:10169000E9F00B34D9F0209137011981110F1213A1
:1016A000EDCF093641F10D3211F0013E39F70093CB
:1016B0003E013F914F911F910F912F91DF91CAB73A
:1016C000C6FD52CFCF91CFBFCF91189500913E016B
:1016D000002379F310913C01112349F534304AF18C
:1016E00030933C0100933801109139013BE0311BEC
:1016F000309339011EC000913C010130C4F40AE569
:1017000030916C0034FD17C000936C00CCE2D1E046
:1017100016C0052710E008BB1FC0052722C00527FB
:1017200027C005272CC0052710E008BB33C04AE5B9
:1017300003C042ED01C0432FC4E1D0E032E017B353
:101740001360C09A08B317BB5F9353E020E820FFF3
:10175000052708BB279517951C3FD8F620FF0527BE
:10176000279508BB17951C3FC0F620FF0527279536
:10177000179508BB1C3F98F620FF0527279517955E
:101780001C3F08BB70F600C0499120FF052708BB2D
:10179000279517951C3F38F620FF0527279508BB8E
:1017A00017951C3F38F520FF05272795179508BB8F
:1017B0001C3F10F520FF0527279517951C3F08BBF8
:1017C000E8F4242F3A9519F60C7F5F9108BB10912D
:1017D0003D01110FC651D04011F01093370110E4B4
:1017E0001ABF016017B31C7F402F4C7F08BB17BB8B
:1017F00048BB5FCF0527D3CF0527D8CF0527DDCF3F
:1018000097FB092E07260AD077FD04D00CD006D00E
:1018100000201AF4709561957F4F0895F6F7909522
:1018200081959F4F0895AA1BBB1B51E107C0AA1FBA
:10183000BB1FA617B70710F0A61BB70B881F991F71
:101840005A95A9F780959095BC01CD010895FB01AB
:101850009F01E8944230BCF04532ACF44A3029F4A0
:1018600097FB1EF4909581959F4F642F7727DBDFC0
:10187000805D8A330CF0895D8193CB010097A9F7D5
:1018800016F45DE251931082C90100C0DC01FC0135
:10189000672F71917723E1F7329704C07C916D93A4
:1018A00070836291AE17BF07C8F30895F894FFCF15
:0E18B0000D0A0001030406090B0C0EFF5A007E
:00000001FF
