:1000000012C02AC029C028C027C026C06EC224C082
:1000100023C022C021C020C01FC01EC01DC0C2C13D
:10002000DCC11AC019C011241FBECFEDCDBF10E036
:10003000A0E6B0E0ECE8F6E002C005900D92A03634
:10004000B107D9F710E0A0E6B0E001C01D92A239D7
:10005000B107E1F70BD018C3D3CF8D9A8A9A8B9A48
:100060008C9A959A929A939A949A0895AF92BF9285
:10007000CF92DF92EF92FF920F931F93CF93DF9374
:10008000D6D2EBDF80E14CD1789465E5A62EC0E0B6
:10009000D0E056E6B52E7DD1882309F4D9C066D1CB
:1000A000803321F1813370F48131F1F0823120F419
:1000B000803109F0C3C016C08C3121F1803209F0C3
:1000C000BDC04FC08333C1F0843330F4813381F03D
:1000D000823309F0B3C00EC0843381F0853309F058
:1000E000ADC00EC082E1ABC087EEA9C09298A8C097
:1000F000929AA6C09398A4C0939AA2C09498A0C0C4
:10010000949A9EC08091640090916500A0916600D1
:10011000B09167001AD18091640090916500A09120
:100120006600B0916700892F9A2FAB2FBB270DD1A6
:100130008091640090916500A0916600B091670085
:10014000CD01AA27BB2701D1809164009091650061
:10015000A0916600B09167008B2F9927AA27BB2733
:100160006EC004D1F82E02D1E82E00D1D82EFED0D8
:10017000C82ED1D0FA248E011F25012E0294802D85
:100180008F708127912F9025990F907E8927902D30
:100190009127907F9695012E000C991F1695169524
:1001A00016951F7119271027082FE0941E25012E80
:1001B0000294802D8F708127912F9025990F907E2A
:1001C0008927902D9127907F9695012E000C991FDD
:1001D0001695169516951F7119271027082FD0947C
:1001E000C8018D25082E8295807F8025092E982FA5
:1001F00082958F700826869598278927880F880F03
:10020000880F8025CB24C8018C25082E8295807FFD
:100210008025092E982F82958F700826869598271D
:100220008927880F880F880F80257C01802F8DD02B
:100230008E2D8BD0812F89D08F2D01C0880F85D036
:100240001092640010926500109266001092670090
:100250008091640090916500A0916600B091670064
:100260000196A11DB11D8093640090936500A09339
:100270006600B09367008091640090916500A09142
:100280006600B091670081509040A044B14008F4EE
:1002900002CF9598F8941092640010926500109225
:1002A00066001092670016C00000000000008091F8
:1002B000640090916500A0916600B091670001967E
:1002C000A11DB11D8093640090936500A09366000A
:1002D000B09367008091640090916500A0916600E2
:1002E000B0916700805A9648A140B040E8F27894F7
:1002F000959A109264001092650010926600109218
:100300006700C9CE10927B0010927A0010928D0087
:1003100010928C00089510928D0010928C00089518
:1003200010927B0010927A0010928D0010928C0037
:100330008093680087B3806A87BBC79AC59ABD98C7
:1003400088EA8DB980EF8EB90895282F90918C009E
:100350009F5F9F7080918D009817E1F3E92FF0E087
:10036000E458FF4F208390938C00089590917A0079
:1003700080917B009817D1F380917B008F5F8F7005
:1003800080937B00E0917B00F0E0E659FF4F808195
:10039000089590917A0080917B0020E0981321E0ED
:1003A000822F08951F920F920FB60F9211248F93F0
:1003B00010926900BD98B79B02C0B59BFCCFB59960
:1003C00002C088EF01C088EA8DB980EF8EB98F91A5
:1003D0000F900FBE0F901F9018951F920F920FB69F
:1003E0000F9211248F939F93EF93FF938091690055
:1003F0008230D9F1833030F4882361F0813009F004
:1004000054C018C08430B9F1843088F0853009F0C8
:100410004CC037C08FB1882331F08FB18695909151
:1004200068008917F9F4789B39C081E038C08FB132
:100430008823C1F490918C0080918D00981791F0E1
:1004400080918D008F5F8F7080938D00E0918D0083
:10045000F0E0E458FF4F80818FB982E0809369001B
:10046000BD9A0DC088EA8DB90AC083E08093690007
:10047000BD981FB818C085E080936900BD9880E7DB
:1004800013C080917A008F5F8F7080937A00E09123
:100490007A008FB1F0E0E659FF4F808384E08093CB
:1004A00069001FB8BD9A8EE78EB9FF91EF919F91B9
:1004B0008F910F900FBE0F901F90189583B7826099
:1004C00083BF8EEB82BF89B7826089BF1092910093
:1004D000109290008FEF80938E00089580938F008C
:1004E00080918F008823E1F708951F920F920FB635
:1004F0000F9211242F933F934F935F936F937F93AA
:100500008F939F93AF93BF93EF93FF938EEB82BF35
:10051000E0919000F0919100309709F00995809159
:100520008F00882329F080918F00815080938F0065
:10053000FF91EF91BF91AF919F918F917F916F91BB
:100540005F914F913F912F910F900FBE0F901F9091
:10055000189520919000309191002817390711F4D7
:1005600081E00895232B11F080E00895909391008D
:100570008093900081E00895209190003091910047
:100580002817390711F080E0089510929100109219
:10059000900081E0089580918E008F3F11F080E0FF
:1005A000089510928E0081E00895F894EDE8F0E04F
:1005B000E80FF11D608378940895F8947894EDE83D
:1005C000F0E0E80FF11D80810895F894EDE8F0E087
:1005D000E80FF11D8FEF808378940895E199FECFA5
:1005E0008EBBE09A8DB30895E199FECF1CBA8EBB05
:1005F0006DBB0FB6F894E29AE19A0FBE089580E0C1
:1006000090E06EEE72E015D008950F931F9300E016
:1006100010E0C8016EEE72E00CD0BC016F5F7F4F3E
:10062000C80144EF52E01BD01F910F910895EDDFF8
:100630000895DF92EF92FF920F931F937B018C013D
:10064000FB010995D82EC8010196F7010995982F4D
:100650008D2D1F910F91FF90EF90DF900895DF9205
:10066000EF92FF920F931F93D72E7A018C01FA011C
:100670000995C80101966D2DF70109951F910F91FC
:0C068000FF90EF90DF900895F894FFCFFA
:00000001FF
